:100000000C9427140C9444140C9444140C94592507
:100010000C94B0630C9444140C9414600C942F60F2
:100020000C9444140C9444140C9444140C944414F0
:100030000C9444140C9414320C9444140C944414F2
:100040000C9444140C9444140C94A56D0C94441416
:100050000C948D330C9444140C9444140C94441458
:100060000C9444140C9444140C9444140C944414B0
:100070000C9444140C9444140C944414414243448E
:1000800045464748494A4B4C4D4E4F5051525354A8
:1000900055565758595A6162636465666768696A5C
:1000A0006B6C6D6E6F707172737475767778797A28
:1000B000303132333435363738392B2F3D00474510
:1000C00054202F676C6F62616C776561746865722C
:1000D0002E61736D782F476574576561746865721A
:1000E0003F436974794E616D653D5061646572622C
:1000F0006F726E26436F756E7472794E616D653DD9
:100100004765726D616E7920485454502F312E31FD
:100110000D0A486F73743A207777772E776562738C
:10012000657276696365782E6E65740D0A4B656538
:10013000702D416C6976653A203330300D0A436F7B
:100140006E6E656374696F6E3A204B6565702D4104
:100150006C6976650D0A0D0A000D0A0D0A0D0A4438
:100160006174656E20416E666F726465726E0D0A11
:10017000005443502045696E74726167206765665C
:10018000756E64656E2028485454505F434C494551
:100190004E5429210D0A005443502045696E747253
:1001A0006167206E6963687420676566756E646553
:1001B0006E2028485454505F434C49454E542921E1
:1001C0000D0A0041525020526571756573740A0D15
:1001D00000256300696E6465782E68746D003C21AB
:1001E000444F43545950452068746D6C205055421B
:1001F0004C494320222D2F2F5733432F2F44544453
:100200002048544D4C20342E3031205472616E738E
:100210006974696F6E616C2F2F454E2220226874BD
:1002200074703A2F2F7777772E77332E6F72672F70
:1002300054522F68746D6C342F6C6F6F73652E641D
:100240007464223E3C68746D6C3E3C686561643E3B
:100250003C6D65746120687474702D657175697684
:100260003D22436F6E74656E742D54797065222043
:10027000636F6E74656E743D22746578742F687454
:100280006D6C3B20636861727365743D69736F2D9B
:10029000383835392D3122202F3E0D0A3C746974CF
:1002A0006C653E415652206D696E692057656273D8
:1002B00065727665723C2F7469746C653E3C73633D
:1002C0007269707420747970653D22746578742F3A
:1002D0006A617661736372697074223E0D0A667595
:1002E0006E6374696F6E2073656E642870696E2921
:1002F000207B0D0A766172204F5554203D20646F9B
:1003000063756D656E742E637265617465456C65A9
:100310006D656E742822494E50555422293B0D0AB2
:100320004F55542E74797065203D202268696464AD
:10033000656E223B0D0A4F55542E76616C75652013
:100340003D2070696E3B0D0A4F55542E6E616D65F0
:10035000203D20224F5554223B0D0A646F63756D7A
:10036000656E742E676574456C656D656E74427953
:10037000496428226869646522292E617070656E5F
:10038000644368696C64284F5554293B0D0A7661B3
:100390007220535542203D20646F63756D656E7405
:1003A0002E637265617465456C656D656E74282297
:1003B000494E50555422293B0D0A5355422E74790B
:1003C0007065203D202268696464656E223B0D0AD9
:1003D0005355422E76616C7565203D202278223B74
:1003E0000D0A5355422E6E616D65203D20225355F6
:1003F00042223B0D0A646F63756D656E742E6765EE
:1004000074456C656D656E7442794964282268692B
:10041000646522292E617070656E644368696C643E
:1004200028535542293B0D0A646F63756D656E74E0
:100430002E676574456C656D656E744279496428F4
:10044000226869646522292E7375626D6974282992
:100450000D0A7D3C2F7363726970743E0D0A3C7304
:1004600074796C6520747970653D22746578742F99
:10047000637373223E0D0A3C212D2D0D0A424F4419
:1004800059207B096D617267696E3A2030203020F7
:100490003020303B206261636B67726F756E642D34
:1004A000636F6C6F723A2077686974653B2074657E
:1004B00078742D616C69676E3A63656E7465723B22
:1004C000207D502C204449562C2048312C20483285
:1004D000207B666F6E742D66616D696C793A20764B
:1004E000657264616E612C20617269616C3B20668B
:1004F0006F6E742D73697A653A20313170783B7D67
:100500004831207B20206261636B67726F756E6477
:100510002D636F6C6F723A20234343434346463B3F
:100520002070616464696E672D746F703A357078FD
:100530003B2070616464696E672D626F74746F6DC7
:100540003A3570783B666F6E742D73697A653A2020
:10055000323070783B20636F6C6F723A20233030FA
:10056000343036303B20666F6E742D77656967686E
:10057000743A626F6C643B206C65747465722D73A1
:10058000706163696E673A203870783B626F72649D
:1005900065722D746F703A2032707820736F6C69B9
:1005A0006420234545454545453B20626F7264659F
:1005B000722D6C6566743A2032707820736F6C69A6
:1005C0006420234545454545453B626F726465722D
:1005D0002D626F74746F6D3A2032707820736F6C77
:1005E000696420233030343036303B20626F7264CF
:1005F00065722D72696768743A2032707820736F63
:100600006C696420233030343036303B7D483220F2
:100610007B20666F6E742D73697A653A2031357070
:10062000783B2070616464696E672D746F703A2046
:10063000323070783B2070616464696E672D6C6540
:1006400066743A353070783B2070616464696E6717
:100650002D72696768743A353070783B636F6C6FE0
:10066000723A233030343038303B20666F6E742D50
:100670007765696768743A626F6C643B207465786B
:10068000742D6465636F726174696F6E3A756E6420
:1006900065726C696E653B626F726465722D746F12
:1006A000703A2031707820736F6C69642023303089
:1006B000343038303B7D502C2048312C20483220BB
:1006C0007B6D617267696E3A203070782030707887
:1006D00020357078203070783B7D0D0A2D2D3E0D31
:1006E0000A3C2F7374796C653E3C2F686561643EEB
:1006F0000D0A3C626F64793E3C626C6F636B71758E
:100700006F74653E3C626C6F636B71756F74653EB0
:100710003C626C6F636B71756F74653E3C646976A7
:1007200020616C69676E3D2263656E746572223E5E
:100730003C68313E415652206D696E6920576562B2
:100740007365727665723C2F68313E3C2F64697622
:100750003E3C62723E0D0A3C68323E476C2675751F
:100760006D6C3B636B77756E7363683C2F68323ECC
:100770003C42523E0D0A3C703E57656E6E206475D9
:100780002064696573656E2054657874206C6573A8
:10079000656E206B616E6E73742C206861737420BB
:1007A0006475206573206765736368616666743A73
:1007B0003C2F703E3C42523E3C42523E0D0A3C7041
:1007C0003E3C696D67207372633D2272616B657494
:1007D0002E676966222077696474683D2239302269
:1007E000206865696768743D223932223E3C2F706B
:1007F0003E3C42523E0D0A3C703E446572205765B5
:1008000062736572766572206C2661756D6C3B75DE
:100810006674202121212025574441592C2025444C
:10082000415445202D202554494D453C2F703E3CD8
:1008300042523E0D0A3C646976207374796C653DC2
:1008400022646973706C61793A206E6F6E653B2229
:100850003E3C666F726D206D6574686F643D2270FA
:100860006F73742220616374696F6E3D2222206968
:10087000643D2268696465223E3C2F666F726D3E5E
:100880003C2F6469763E0D0A3C6120687265663DC6
:10089000226A6176617363726970743A73656E641B
:1008A0002827412729223E3C696D67207372633DEA
:1008B0002225504F525441302220626F726465727B
:1008C0003D2230223E3C2F613E20506F7274204109
:1008D000302028746F67676C65293C62723E0D0A90
:1008E0003C6120687265663D226A6176617363725D
:1008F0006970743A73656E642827422729223E3C4A
:10090000696D67207372633D2225504F5254413107
:100910002220626F726465723D2230223E3C2F615C
:100920003E20506F72742041313C62723E0D0A3C91
:100930006120687265663D226A61766173637269DF
:1009400070743A73656E642827432729223E3C69F8
:100950006D67207372633D2225504F5254413222FD
:1009600020626F726465723D2230223E3C2F613EF0
:1009700020506F72742041323C62723E0D0A3C621C
:10098000723E3C62723E3C703E3C696D6720737201
:10099000633D222550494E443722207769647468AC
:1009A0003D22313722206865696768743D223137FE
:1009B000223E20506F727420442050696E20373CD4
:1009C0002F703E0D0A3C703E3C696D672073726368
:1009D0003D222550494E4436222077696474683D93
:1009E00022313722206865696768743D22313722D9
:1009F0003E20506F727420442050696E20363C2F88
:100A0000703E0D0A3C703E3C696D67207372633D19
:100A1000222550494E4435222077696474683D226E
:100A2000313722206865696768743D223137223E7C
:100A300020506F727420442050696E20353C2F7016
:100A40003E0D0A3C62723E3C62723E3C7461626CD6
:100A50006520616C69676E3D2263656E7465722204
:100A60002077696474683D223530302220626F72CD
:100A70006465723D2230223E3C74723E0D0A3C7425
:100A8000682073636F70653D22636F6C223E3C701B
:100A900020616C69676E3D2263656E746572223EEB
:100AA00045696E67616E673C2F703E3C2F74683EEF
:100AB0003C74682073636F70653D22636F6C223EE7
:100AC0003C7020616C69676E3D2263656E7465726F
:100AD000223E42616C6B656E3C2F703E3C2F746809
:100AE0003E3C74682073636F70653D22636F6C22B7
:100AF0003E3C7020616C69676E3D2263656E746573
:100B000072223E54656D70657261747572205B2649
:100B10006465673B435D3C2F703E3C2F74683E3CF0
:100B20002F74723E3C74723E3C74643E3C70206193
:100B30006C69676E3D2263656E746572223E312D6D
:100B4000576972652057657274313C2F703E3C2F97
:100B500074643E3C74643E3C696D67207372633D0F
:100B60002262616C6B652E67696622207769647406
:100B7000683D22254F5740303022686569676874A8
:100B80003D223130223E3C2F74643E3C74643E3C36
:100B90007020616C69676E3D2263656E74657222B8
:100BA0003E254F574032303C2F703E3C2F74643E00
:100BB0003C2F74723E3C74723E3C74643E3C702028
:100BC000616C69676E3D2263656E746572223E31A9
:100BD0002D576972652057657274323C2F703E3C08
:100BE0002F74643E3C74643E3C696D67207372638D
:100BF0003D2262616C6B652E6769662220776964AD
:100C000074683D22254F5740303122686569676816
:100C1000743D223130223E3C2F74643E3C74643E6D
:100C20003C7020616C69676E3D2263656E7465720D
:100C3000223E254F574032313C2F703E3C2F74648A
:100C40003E3C2F74723E0D0A3C2F7461626C653E0F
:100C50003C42523E3C42523E203C7020616C6967EF
:100C60006E3D226C656674223E3C42523E3C703EB4
:100C70003C6120687265663D225374617475732E01
:100C800068746D223E5374617475733C2F613E3CF1
:100C90002F703E3C42523E0D0A3C42523E3C425274
:100CA0003E203C7020616C69676E3D226C65667405
:100CB000223E203C68323E3C2F68323E3C42523E4F
:100CC0000D0A3C703E3C6120687265663D22687486
:100CD00074703A2F2F7777772E756C72696368720C
:100CE000616469672E6465223E7777772E756C7232
:100CF00069636872616469672E64653C2F613E3C7C
:100D00002F703E3C42523E3C7020616C69676E3DE4
:100D1000226C656674223E556C726963682052616C
:100D20006469672032303038203C62723E3C627227
:100D30003E3C2F703E0D0A3C2F6469763E3C2F628C
:100D40006C6F636B71756F74653E3C2F626C6F6383
:100D50006B71756F74653E3C2F626C6F636B717560
:100D60006F74653E3C2F626F64793E3C2F68746DF2
:100D70006C3E25454E44005374617475732E68743F
:100D80006D003C21444F43545950452068746D6CAC
:100D9000205055424C494320222D2F2F5733432FAB
:100DA0002F4454442048544D4C20342E303120548C
:100DB00072616E736974696F6E616C2F2F454E227C
:100DC0002022687474703A2F2F7777772E77332E1E
:100DD0006F72672F54522F68746D6C342F6C6F6F65
:100DE00073652E647464223E3C68746D6C3E3C688E
:100DF0006561643E3C6D65746120687474702D6536
:100E0000717569763D22436F6E74656E742D5479E9
:100E100070652220636F6E74656E743D2274657810
:100E2000742F68746D6C3B20636861727365743DE8
:100E300069736F2D383835392D3122202F3E3C73A0
:100E400074796C6520747970653D22746578742FAF
:100E5000637373223E2E7374796C6531207B206638
:100E60006F6E742D73697A653A20736D616C6C3B9B
:100E7000207D2E7374796C6532207B2074657874C4
:100E80002D616C69676E3A206C6566743B207D3C11
:100E90002F7374796C653E3C2F686561643E3C62DB
:100EA0006F64793E3C626C6F636B71756F74653E05
:100EB0003C626C6F636B71756F74653E3C626C6F06
:100EC000636B71756F74653E0D0A3C6469762061D1
:100ED0006C69676E3D2263656E746572223E3C6884
:100EE000313E53746174757320506167653C2F689F
:100EF000313E3C2F6469763E3C62723E3C646976CA
:100F00003E436F6D70696C69657274204D61792024
:100F10002032203230303920756D2032313A333072
:100F20003A3037206D697420474343205665727309
:100F3000696F6E20342E322E32202857696E41564A
:100F400052203230303731323231293C2F646976C9
:100F50003E3C6469763E42657375636865722073D2
:100F600065697420537461727420646573205765D9
:100F70006273657276657273202825564140303958
:100F8000293C2F6469763E3C62723E3C62723E3C74
:100F900062723E3C7020636C6173733D227374799E
:100FA0006C6532223E3C6120687265663D22696E46
:100FB0006465782E68746D223E486175707473653F
:100FC0006974653C2F613E3C2F703E3C62723E3C32
:100FD00062723E3C62723E3C62723E3C703E3C61DC
:100FE00020687265663D22687474703A2F2F777797
:100FF000772E756C7269636872616469672E6465C7
:10100000223E7777772E756C7269636872616469C6
:10101000672E64653C62723E3C2F613E3C62723ECC
:101020003C7370616E20636C6173733D22737479DD
:101030006C6531223E556C72696368205261646947
:101040006720323030373C2F7370616E3E3C2F6228
:101050006C6F636B71756F74653E3C2F626C6F6370
:101060006B71756F74653E3C2F626C6F636B71754D
:101070006F74653E3C2F626F64793E3C2F68746DDF
:101080006C3E25454E44006C65646F6E2E67696644
:101090000047494638396111001100A53F004D4D08
:1010A0004D50504F545454416A445C5C5C3F734211
:1010B0006262626A6B6B16A71E6F6F6F5F7A601950
:1010C000AD211CB2255694597B7B7B1ABD2323BAD4
:1010D0002C1BC3258383831CCA267C8B7D1CD326B3
:1010E0008B8B8B2DCC361CD8261DDF289091911D23
:1010F000E1281EE22921E22C35DB3F2EE4389C9DBD
:101100009D3EE64740E649A5A5A547E75050E4586F
:10111000A9A9A94EE856AEAEADAFB0AFB0B0B064BD
:10112000E66BB4B4B5B8B8B96CEC7377ED7DBFC0FD
:10113000BFC0C0C0C2C2C2A6DAA9C9C8C993F198CB
:10114000CCCCCCD1D1D1A5F3A9D5D5D5DEDEDEE08E
:10115000E0E0C5F7C8E7E7E7EFEFEFFFFFFF21F9B2
:1011600004010A003F002C000000001100110000E3
:1011700006EDC09F50D8CBC954A9966DC8FCF97430
:10118000371A8C65026940B4A66FA72B2D10E0C5F5
:1011900045E2680D7DBB1923E2097D3295C7A29116
:1011A0008009753AC6C5F5729D3E1B15130B0912D1
:1011B0003F3D371E112B3538352E221D1B180F10C1
:1011C000062C39340B1E2F383C382F241D1B1B15C1
:1011D0000B0616323008212E3538352E221CA41865
:1011E0000804072A2C081F272E2F2E271FA41B199F
:1011F000080402292608191F2224221FC41B1908CB
:1012000002062D200B181B1DDED31B150B021236F8
:101210001A100FE0D3111000283F20140B13EA1B03
:10122000130B030942340E0D0B0F18326CC880E10A
:10123000C1820200580C69914001840560102C6045
:101240001000C008263F62483060800001010200A3
:1012500024608171080B0B07041890800263100052
:101260003B25454E446C65646F66662E6769660073
:1012700047494638396111001100A53F004D4D4DD9
:101280005050505252525454545756575A5A595D0E
:101290005D5D5E5D5D5E5E5E606060626262636356
:1012A000636464646565656969696E6E6E707070AB
:1012B0007777777878787A7A7A7B7B7B7E7E7E7F89
:1012C0007F7F8080808181818383838787878989ED
:1012D000898B8B8B8E8E8E9091919191929393931B
:1012E0009797979A9A9A9C9C9CA5A5A5A9A9A9AB02
:1012F000ABABACACACAEAEADAFAFAFAFB0AFB0B010
:10130000B0B2B2B2B4B4B4B4B4B5B5B5B5B8B8B996
:10131000BFC0BFBFC0C0C0C0C0C2C2C2C8C8C8C9A9
:10132000C9C9CCCCCCD1D1D1D5D5D5DDDDDDDEDF81
:10133000DEE0E0E0E7E7E7EFEFEFFFFFFF21F90492
:10134000010A003F002C00000000110011000006FF
:10135000ECC09F50D8CBD1562AD86DC8FCF976B8CE
:101360005AEC551A7946B5A68FA713351006C44214
:10137000A3A1C0863EDECC31E97C369509A411815B
:10138000C8843B9DA373629D461B1616120C0F1852
:101390003F3D381F13273437342720188210120A94
:1013A0002E39360D1D2C373B372C211982130A0993
:1013B0001C3431081F2634373427201782150807BC
:1013C0000E2B2F061B23272C27231B8282060503A7
:1013D000292508151B2021201BC3161508040C30D5
:1013E000230B1316181918D116130A0219371E17D2
:1013F00010DFD1101500283F231A0D12E916120A2A
:10140000010F423514110C1013152C549800414152
:1014100001002D86C080F04082020406102878105A
:10142000000089263330284860A0000101001EB466
:101430006832C405070703186440D12408003B251F
:10144000454E4462616C6B652E676966004749468C
:1014500038396102000A00A20000A2A5ED848FE5E0
:10146000667CDD4960D62144DAFE010200000000FE
:10147000000021F90405140005002C000000000202
:10148000000A0000030A483423120148001D5309D2
:10149000003B25454E4472616B65742E676966009A
:1014A0004749463839610F000F00B30D00454545E7
:1014B000FFEA00000000FFFFFFFFCE00FFC900FFB2
:1014C000B400FE9D00FFFE93FFFD13FFFFC7FFFF6B
:1014D000EBFFE50000000000000000000021F9041F
:1014E0000100000D002C000000000F000F000004A0
:1014F00059B049096A9DB8D5A5102217067049123E
:101500009CC4014C40679E70BA6A8829C077006A03
:10151000CA9B07B9820A80F8C170864A51C06C3AEA
:101520009300DB604A1D080A5002B04ABDAA345A33
:1015300001F7BA0313184EF297422014DE6F59A632
:1015400062A81B86199665368900003B25454E44E6
:10155000D401DE01770D820D9614A01443144D14AE
:10156000871091106512701200000000485454500A
:101570002F312E302032303020446F63756D656E10
:101580007420666F6C6C6F77730D0A5365727665A5
:10159000723A204156525F536D616C6C5F576562C1
:1015A0007365727665720D0A436F6E74656E742D85
:1015B000547970653A20746578742F68746D6C0D79
:1015C0000A0D0A00485454502F312E30203230304A
:1015D00020446F63756D656E7420666F6C6C6F77F9
:1015E000730D0A5365727665723A204156525F5305
:1015F0006D616C6C5F5765627365727665720D0A1A
:10160000436F6E74656E742D547970653A20696D00
:101610006167652F6A70670D0A0D0A0048545450BF
:101620002F312E302034303120556E617574686F43
:1016300072697A65640D0A5365727665723A204163
:1016400056525F536D616C6C5F576562736572765D
:1016500065720D0A5757572D41757468656E746928
:10166000636174653A204261736963207265616CDD
:101670006D3D224E65656450617373776F726422AD
:101680000D0A436F6E74656E742D547970653A203F
:10169000746578742F68746D6C0D0A0D0A004854D7
:1016A00054502F312E3120323030204F4B0D0A5301
:1016B00065727665723A204156525F536D616C6C6B
:1016C0005F5765627365727665720D0A436F6E745B
:1016D000656E742D446973706F736974696F6E3AC7
:1016E000206174746163686D656E743B66696C65D6
:1016F0006E616D653D446174616C6F672E637376D6
:101700000D0A436F6E6E656374696F6E3A20636C89
:101710006F73650D0A436F6E74656E742D54797026
:10172000653A2066696C650D0A0D0A003430312077
:10173000556E617574686F72697A656425454E44AB
:101740000025454E44000D0A002E676966002E6A8A
:101750007067002E68746D006373760068746D00A6
:10176000494E4445582E48544D00504F535400495B
:101770006E6E656E20200041757373656E20000DDE
:101780000A756E62656B616E6E74657220524335C8
:1017900020436F64653A202569202F2025690D0AB2
:1017A0000054656D702E202532693A200045525252
:1017B0004F520D0A0D0A000D0A53443A25733E009C
:1017C0000D0A0053656E736F722032205A6569747A
:1017D0003A2025692053656B756E64656E005379F8
:1017E0007374656D20526561647900436F6D706933
:1017F0006C69657274206D69742047434320566597
:101800007273696F6E20342E322E32202857696E23
:10181000415652203230303731323231290D0A00F0
:10182000436F6D70696C6965727420616D204D61E4
:1018300079202032203230303920756D2032313A13
:1018400033303A30370D0A000A0D53797374656DE1
:101850002052656164790A0D00D9000AFA0000007F
:101860000000010400000000000000000000000073
:101870000000000000000000000000000000000068
:1018800000C7D6AC720800000025454E4448454CC0
:101890004F204554485F4D33325F45580D0A004193
:1018A000555448204C4F47494E0D0A005253455459
:1018B0000D0A00444154410D0A002E0D0A005155F5
:1018C00049540D0A002323002323004D58000D0A1C
:1018D000002323005243505420544F3A000D0A0075
:1018E0004652004D41494C2046524F4D3A000D0A98
:1018F000005057000D0A0055530053746172742054
:1019000054656C6E6574205365727665723A0D0A83
:10191000001F1C1F1E1F1E1F1F1E1F1E1F4A616E41
:101920004665624D61724170724D61794A756E4AC9
:10193000756C4175675365704F63744E6F7644657F
:1019400063002532642025732025346400040005DB
:101950001A06FF071F080009000AFF0B19C100C083
:101960000DC233CAEECB05C415C612E400E520E271
:1019700018E3B1E015E13F7500FFFF000100140717
:1019800042FFFF51554954004558495400524553B0
:1019900045540041525000544350004950004E45B8
:1019A0005400524F55544552004E5450004D41433F
:1019B000005645520053560054494D45004E545070
:1019C000520050494E4700444E5300444E5351007C
:1019D000444E535200444952004449534B00434142
:1019E0005400505744004357440043440043445577
:1019F0005000555345520050415353004E4F4F50E5
:101A000000545950450050415356004C495354001E
:101A1000524554520053544F5200524D44004D4BC6
:101A2000440044454C450053595354006D61696C62
:101A30000048454C50003F004F57004F575245411A
:101A4000440083195436881954368D195736931922
:101A50006B3B9719893A9B19ED439E192143A219B3
:101A6000BB42AD197E37B1194937B5195D36B81982
:101A7000BE36C2195D41A9198743BD193541C71941
:101A80004D42CB191941D019BD41D519C53FD919BE
:101A90002938DE19A03FE2199736E619AD3DEA195B
:101AA000AD3DED19193DF219993CF719913CFC191E
:101AB0007A3C011AD53C061A60360B1AC03C101A43
:101AC000103F151A6B3F221A373F1E1AF43E1A1A9E
:101AD000373F271A023D2C1A2441311AE638361AAC
:101AE000E638381A0F393B1A383A000000005736EA
:101AF0006B3B893AED43BE3635410F39383AC53F25
:101B00002938E638524553455420202D20726573FC
:101B100065742074686520415652202D20436F6EF5
:101B200074726F6C6C65720D0A4152502020202037
:101B30002D206C69737420746865204152502074A4
:101B400061626C650D0A544350202020202D206CCA
:101B50006973742074686520746370207461626CAA
:101B6000650D0A495020202020202D206C697374B7
:101B70002F6368616E67652069700D0A4E455420B9
:101B80002020202D206C6973742F6368616E676557
:101B9000206E65746D61736B0D0A524F555445523A
:101BA000202D206C6973742F6368616E67652072E5
:101BB0006F757465722069700D0A4E545020202094
:101BC000202D206C6973742F6368616E6765204EE9
:101BD00054500D0A4E5450522020202D204E545067
:101BE00020526566726573680D0A4D4143202020BE
:101BF000202D206C697374204D41432D6164647203
:101C00006573730D0A564552202020202D206C69E3
:101C1000737420656E632076657273696F6E206ED3
:101C2000756D6265720D0A535620202020202D20EC
:101C3000736574207661726961626C650D0A504942
:101C40004E472020202D2073656E642050696E67FA
:101C50000D0A4D41494C2020202D2073656E6420D3
:101C6000452D4D61696C0D0A6469736B2020202D30
:101C70002053442D4B617274656E696E666F726D90
:101C80006174696F6E0D0A646972202020202D2016
:101C90004469726563746F727920616E7A656967F1
:101CA000656E0D0A636174202020202D204461742C
:101CB000656920616E7A656967656E0D0A63776490
:101CC000202020202D206368616E676520776F7269
:101CD0006B696E67206469726563746F72790D0A4F
:101CE000636420202020202D20776965206377649D
:101CF0000D0A4F5709092D20312D77697265205340
:101D0000656E736F72656E2073756368656E0D0A1C
:101D10004F5752454144092D20766F7262656C65BC
:101D200067746520312D776972652053656E736F16
:101D300072656E206175736C6573656E0D0A54492A
:101D40004D452020202D206765742074696D650D38
:101D50000A48454C502020202D207072696E742056
:101D600048656C70746578740D0A3F20202020202F
:101D7000202D207769652048454C500D0A000D0A3A
:101D8000666F726D61743A20202569000D0A7772C2
:101D90002E70722E3A202025692F2569000D0A63C6
:101DA0006F70793A202020202569000D0A73697A26
:101DB000653A20202020256C000D0A646174653A84
:101DC0002020202025692F2569000D0A736572697E
:101DD000616C3A2020256C000D0A7265763A20204D
:101DE0002020202569000D0A70726F643A2020209F
:101DF000202573000D0A6F656D3A202020202025D4
:101E000073000D0A6D616E75663A20307825780092
:101E10000D0A4469736B206B616E6E206E69636896
:101E2000742067656C6573656E2077657264656E96
:101E30002E00256300202A2A2A204D657373756EB3
:101E400067206665686C67657363686C6167656E5B
:101E50002E20284B75727A7363686C7573733F29F3
:101E6000202A2A2A0020435243204572726F722092
:101E7000286C6F737420636F6E6E656374696F6E28
:101E80003F29002025692025692E2534692043201B
:101E9000256900205370616E6E756E67737665728A
:101EA000736F7267756E672E200065787465726E49
:101EB0006572007061726173697461657265720048
:101EC000206D69742000445331384232300044534D
:101ED00031385332302F445331383230000D0A2319
:101EE0002569206973742065696E20000A0D2569D3
:101EF00020312D576972652053656E736F72656E60
:101F000020676566756E64656E2E0D0A000D0A42C7
:101F10007573204572726F72000D0A4E6F20536503
:101F20006E736F7220666F756E64000D0A53636185
:101F30006E6E696E672042757320666F722044531F
:101F40003138583230000D0A000D0A25693A202533
:101F500069000D0A466978656420542D53656E73D7
:101F60006F722057657274653A0032323720456EC1
:101F7000746572696E672050617373697665204D70
:101F80006F6465202825692C25692C25692C256915
:101F90002C382C3532290D0A003535302052657128
:101FA00075657374656420616374696F6E206E6F0C
:101FB000742074616B656E2E0D0A00353330204E2F
:101FC0006F74206C6F6767656420696E2E0D0A0060
:101FD000353032206E6F7420696D706C656D656E82
:101FE0007465642E0D0A00323530206F6B2E0D0A99
:101FF0000032303020436F6D6D616E64206F6B2E48
:102000000D0A00313530204F70656E696E672041D2
:1020100053434949206D6F64652064617461206396
:102020006F6E6E656374696F6E2E0D0A0031353008
:10203000204F70656E696E672042494E41525920AB
:102040006D6F6465206461746120636F6E6E65639B
:1020500074696F6E2E0D0A00323030205573696E30
:1020600067204153434949206D6F646520746F2098
:102070007472616E7366657220646174612E0D0AFC
:1020800000323030205573696E672042494E41520C
:1020900059206D6F646520746F207472616E736671
:1020A000657220646174612E0D0A0032353020445F
:1020B00069726563746F7279206368616E676564C5
:1020C00020746F2025730D0A002F00323530204414
:1020D00069726563746F7279206368616E676564A5
:1020E00020746F2025730D0A002F002F0032353722
:1020F000202225732220697320796F757220637501
:102100007272656E74206C6F636174696F6E0D0A14
:10211000000D0A44454C453A2025732065786973C3
:10212000742E0025730025396C2000202020203CCF
:102130004449523E20000D0A2532692E2532692E6F
:102140002569202532693A253269200025692D2527
:10215000692D25692025693A25693A2569202538A0
:10216000732025730D0A00256C64003C4449523EDF
:10217000000A0D53442D4B617274653A00323135BB
:1021800020444F530D0A00444E532049503A202515
:1021900031692E2531692E2531692E2531690D0AC7
:1021A00000323530206F6B2E20444E532049503A78
:1021B0002025692E25692E25692E25690D0A000A1C
:1021C0000D54494D453A202532693A2532693A2560
:1021D00032690D0A00323530206F6B2E2054696D44
:1021E000653A202532693A2532693A2532690D0A65
:1021F000002054696D653A2534690D0A0020444574
:1022000053545F504F52543A25346900205352437F
:102210005F504F52543A253469002E253369002E01
:10222000253369002E25336900202049503A253393
:10223000690025326900202054696D653A253469AA
:102240000D0A002E253369002E253369002E253313
:102250006900202049503A253369002E2532780044
:102260002E253278002E253278002E253278002E49
:102270002532780025326920204D41433A253278B5
:1022800000454E4332384A36302D56657273696FB9
:102290006E3A202531780D0A00323530206F6B2ED2
:1022A00020454E4332384A36302D56657273696F79
:1022B0006E3A202531780D0A004D79204D41433A80
:1022C000202532783A2532783A2532783A25327804
:1022D0003A2532783A2532780D0A00323530206FAF
:1022E0006B2E204D79204D41433A202532783A25F6
:1022F00032783A2532783A2532783A2532783A25BA
:1023000032780D0A00526F757465722049503A2078
:102310002531692E2531692E2531692E2531690D2A
:102320000A00323530206F6B2E20526F7574657243
:102330002049503A2025692E25692E25692E2569C8
:102340000D0A004E45544D41534B3A202531692E1C
:102350002531692E2531692E2531690D0A004E453A
:10236000544D41534B3A2025692E25692E25692E5F
:1023700025690D0A004E54505F5365727665723AB6
:10238000202531692E2531692E2531692E253169A7
:102390000D0A004E54505F5365727665723A2025DF
:1023A000692E25692E25692E25690D0A004D792093
:1023B00049503A202531692E2531692E2531692E63
:1023C0002531690D0A004D792049503A2025692EA2
:1023D00025692E25692E25690D0A000D0A00323265
:1023E0003020536572766572206265726569740D7E
:1023F0000A00323236205472616E73666572206351
:102400006F6D706C6574652E20436C6F73696E67B9
:10241000206461746120636F6E6E656374696F6EB2
:102420000D0A006279652C20627965202E2E2E0D12
:102430000A00353032206E6F7420696D706C656DE6
:10244000656E7465642E0D0A0028D7003201000005
:10245000BB28C91F32010000E0000000000000009E
:10246000000000000000000000000000000000006C
:10247000000000000000000000000000000000005C
:10248000000000000000000000000000000000004C
:10249000000D0A002534693B002534693B25346969
:1024A0003B2534693B2534693B002532693B2532A5
:1024B000693A2532693A2532693B20533B25632529
:1024C0006325633B2532693B25693B25693B2569CB
:1024D0003B004C6F6720676573746172746574208C
:1024E0002D2D2D2D2D2D2D2D0D0A006C6725322E15
:1024F000326925322E326925322E32692E63737687
:10250000006E65753B2563256325633B2532693B7A
:102510000D0A002532693B2532693A2532693A2590
:1025200032693B616C743B2563256325633B25322F
:10253000693B0001030406090B0C0E2043524320A3
:102540004F2E4B2E200020435243204641494C2021
:102550000028203F2029002831384229002831381E
:10256000532900257820000D0A2A2A204D5820657D
:102570006D7066616E67656E3A202573000D0A2ADC
:102580002A2050545220656D7066616E67656E3A00
:10259000202573000D0A2A2A20534F4120656D70B3
:1025A00066616E67656E3A202573000D0A2A2A203F
:1025B000434E414D4520656D7066616E67656E3AAC
:1025C000202573000D0A2A2A204E5320656D70665F
:1025D000616E67656E3A202573000D0A2A2A204431
:1025E0004E5320495020656D7066616E67656E3A86
:1025F0002025692E25692E25692E2569000D0A2AB8
:102600002A20444E53205459504520256920434CDC
:102610004153532025692052444C656E20256900A2
:102620000D0A2A2A20444E533A202569205252731B
:10263000000D0A2A2A20444E532066616C73636899
:10264000652049443A203078257820307825780074
:102650002A2A20444E5320444154412047455421C6
:10266000202A2A0D0A000D0A4B65696E656E20440A
:102670004E532053657276657220676566756E6489
:10268000656E2121000D0A2A2A20444E53205265EE
:10269000717565737420676573656E646574212058
:1026A0002A2A000D0A444E5320416E667261676506
:1026B0003A2025730025692E25692E25692E256966
:1026C0002E696E2D616464722E6172706100536FA9
:1026D0006E4D6F6E4469654D6974446F6E467265E8
:1026E00053616D006C65646F6E2E676966006C6582
:1026F000646F66662E6769660050494E006C6564BB
:102700006F66662E676966006C65646F6E2E67691A
:102710006600504F5254004F5740005744415900F3
:102720005553444154450025322E32642E25322E15
:1027300032642E25346400444154450025322E3243
:10274000643A25322E32643A25322E3264005449DE
:102750004D450000407A10F35A00A0724E1809004F
:1027600010A5D4E80000E87648170000E40B5402F6
:102770000000CA9A3B000000E1F505000080969831
:1027800000000040420F000000A086010000001081
:102790002700000000E803000000006400000000C3
:1027A000000A00000000000100000000002C76D8A4
:1027B00088DC674F0823DFC1DFAE59E1B1B796E58A
:1027C000E3E453C63AE651997696E8E6C28426EBEE
:1027D000898C9B62ED407C6FFCEFBC9C9F40F2BA01
:1027E000A56FA5F490055A2AF75C936B6CF9676D99
:1027F000C11BFCE0E40D47FEF520E6B500D0ED90EE
:102800002E0300943577050080841E080000204EBA
:102810000A000000C80C333333330F986E12831153
:1028200041EF8D2114893BE65516CFFEE6DB18D12A
:10283000844B381BF77C1D901DA4BBE424203284FC
:10284000725E228100C9F124ECA1E53D270011242C
:102850001FBECFEFD0E1DEBFCDBF12E0A0E0B1E000
:10286000E4EEF4EF02C005900D92A83EB107D9F74F
:102870001FE0A8EEB2E001C01D92A130B107E1F760
:102880000E94E31C0C94717A0C940000CF93DF93A8
:10289000DC01EB01AB0131C090E0969587959695F0
:1028A0008795FE0181939F019C9193709295907FF3
:1028B0009983FD018181882321F4E901219622E099
:1028C00020C082958F70890F8983FD0191819F704F
:1028D000990F990F9A838281882319F4239621E016
:1028E00010C08295869586958370890F8A83FD0135
:1028F00082818F738B83249613968C91882361F643
:1029000020E01882DA0108C0EC91F0E0EF73F0707B
:10291000E458FF4FE491ED93AC17BD07A9F7FD0113
:10292000922F02C08DE381939150E0F7A20FB11D69
:102930001C92DF91CF910895DF92EF92FF920F9357
:102940001F938091E8029091E902029778F08091BC
:10295000E8029091E902449748F48091E80290914E
:10296000E90201969093E9028093E8028091E802DF
:102970009091E902892B09F08AC083EC91E09F9342
:102980008F930E944B7466E875E182E399E00E94A0
:10299000FD2461ED72EA8AEB9CE30E94272D0F90E3
:1029A0000F90882309F46DC080E090E0A0E0B0E0D3
:1029B00000000196A11DB11D803824E892072EE188
:1029C000A20720E0B207A1F782E399E00E94622407
:1029D0009C0140E050E561ED72EA8AEB9CE30E94C5
:1029E0004D2985E0E82EF12C012D112DDD241DC08F
:1029F00040E050E561ED72EA8AEB9CE30E94E72734
:102A00009FE1D91639F487E991E09F938F930E9453
:102A10004B7474C0E82EFF2400E010E025E0E216BD
:102A2000F1040105110580F0D39486E190E0E89E61
:102A3000F001E99EF00DF89EF00D1124EB5BF34FD1
:102A4000818992890197A1F681E791E09F938F9305
:102A50000E944B7486E190E0E89EF001E99EF00D43
:102A6000F89EF00D1124E65AF34F80818160808337
:102A700082E090E09093E9028093E8020F900F903B
:102A800006C081E090E09093E9028093E802809193
:102A9000E8029091E9020B9798F18091E8029091F9
:102AA000E902449768F589E591E09F938F930E942E
:102AB0004B7440E050E561ED72EA8AEB9CE30E94C2
:102AC000E727D82EE82EFF244AE950E06EEB70E0AD
:102AD00081E897E00E94E67286E190E0E89EF001CE
:102AE000E99EF00DF89EF00D1124EB5BF34F88E1A9
:102AF000808B6D2D8AE990E00E9497280F900F90AF
:102B00001F910F91FF90EF90DF900895DF92EF9269
:102B1000FF920F931F93CF93DF93D82E8091790765
:102B2000C82FD0E0C07FD070D595C795D595C795F3
:102B3000A2968E01055B184F61EDE62E61E0F62E40
:102B40000FC0F80181918F0190E09F938F93FF92C6
:102B5000EF920E944B7421960F900F900F900F9060
:102B600020915C0730E02E5D3F4F80915B0790E045
:102B7000982F8827280F391F8091790790E0807F50
:102B800090709595879595958795281B390BC21759
:102B9000D307BCF22D2D30E086E190E0289FF001B4
:102BA000299FF00D389FF00D1124EB5BF34F8FEF51
:102BB000838B80E1808B6D2D80E090E00E949728D0
:102BC000DF91CF911F910F91FF90EF90DF900895CB
:102BD000CF93DF9390E027E230E0829FA001839FB4
:102BE000500D929F500D1124A5EEBCE09A012A0FC2
:102BF0003B1FE9018881817F816088831897FA01F2
:102C0000EA0FFB1F138212821182108288818F7E4D
:102C1000888389EC9CE09583848381E191E09287AD
:102C2000818786E191E0948783878BE191E09783A8
:102C300086831D96A40FB51F8C918E7F8C93178E63
:102C400010A211A212A213A214A215A216A2DF9121
:102C5000CF9108952F923F924F925F926F927F9201
:102C60008F929F92AF92BF92CF92DF92EF92FF929C
:102C70000F931F93CF93DF93CDB7DEB7C655D040E8
:102C80000FB6F894DEBF0FBECDBF67968FAF6797C4
:102C9000882E992487E290E0889EA001899E500D9D
:102CA000989E500D1124FA01EB51F34F808180FD65
:102CB00007C0FA01E352F34F8CE297E193838283DA
:102CC00086E190E0889EF001899EF00D989EF00DBF
:102CD0001124EB5BF34F80898823B9F49A012352C6
:102CE000334FF9018081918193838283FA01E65108
:102CF000F34F808180FF09C0F90183A194A1A5A1B0
:102D0000B6A1878F90A3A1A3B2A38091790790E089
:102D1000807F907095958795959587958359984F65
:102D20009A8389831C821B8287E290E0889E7001CF
:102D3000899EF00C989EF00C112487010651134FC8
:102D4000F801808180FF93C05DEDC52E5CE0D52E3B
:102D5000CE0CDF1CF601878D90A1A1A1B2A183A3A7
:102D600094A3A5A3B6A360E071E0C7018551934F7A
:102D70000E94384A5C01009709F475C0F60143A12E
:102D800054A165A176A120E00E94DD49F701EB5135
:102D9000F34F808186958370B9F56624772445E0EA
:102DA000E42EF12CEC0EFD1E33E0232E312C2C0EE4
:102DB0003D1E2E010894411C511C8601A50161E5B0
:102DC00070E0C7010E949049892BD1F1A101B201A5
:102DD000C7010E947F6A680E791E8B819C81A0E0EA
:102DE000B0E0F801278D30A141A152A1820F931FBD
:102DF000A41FB51F878F90A3A1A3B2A3F6E16F16FE
:102E0000F4E07F0660F5DACF69817A814AE754E021
:102E1000C5010E94124D3C01A0E0B0E0F601278DF3
:102E200030A141A152A1820F931FA41FB51F878F0C
:102E300090A3A1A3B2A3FAE76F16F4E07F0678F49B
:102E400086E190E0889EF001899EF00D989EF00D3D
:102E50001124EB5BF34F8DEF9FEF928B818BC501BC
:102E60000E942D4A06C0F80180818E7F80836624EF
:102E7000772487E290E0889E9001899E300D989E8D
:102E8000300D1124F901E651F34F808180FDC5C05A
:102E9000D901A352B34FFD018281938111969C9376
:102EA0008E93F901EB51F34F80818695837009F47D
:102EB00040C062C0F7016281738140E550E0C50106
:102EC0000E94E67266E477E1C5010E945273DC015C
:102ED000009759F0FC011282F701828193810296DA
:102EE000AA19BB098A0F9B1F08C066961FAE66977A
:102EF000F70182819381805B9F4F9383828361E49A
:102F000077E1C5010E9452738C01892B39F08DEF56
:102F10009FEFF601928B818BF8011082A101B20123
:102F2000C5010E947F6A680E791E012B09F075C0E9
:102F30001CC07D0125E0A22EB12CAC0EBD1E86E189
:102F400090E0889E6001899ED00C989ED00C112440
:102F500085E49CE0C80ED91E93E0292E312C2C0E5E
:102F60003D1E2E010894411C511C96E1691694E007
:102F7000790608F49FCF51C087E290E0889EF00167
:102F8000899EF00D989EF00D1124E352F34FE280DC
:102F9000F38082E0C82E81E0D82E2DC0F70108947E
:102FA000E11CF11CE491A981BA81EC9309811A8199
:102FB000F80180818532C1F443E050E0B701C601D9
:102FC0000E941D73892B81F486E190E0889EF001B8
:102FD000899EF00D989EF00D1124EB5BF34F8DEF61
:102FE0009FEF928B818B0CC00894611C711C0F5F4A
:102FF0001F4F1A830983FAE76F16F4E07F0670F219
:1030000087E290E0889EF001899EF00D989EF00D79
:103010001124E352F34FF382E28286E190E0889E2E
:10302000F001899EF00D989EF00D1124EB5BF34F9B
:1030300088E1808B67966FAD6797C3010E949728E0
:10304000CA5ADF4F0FB6F894DEBF0FBECDBFDF9177
:10305000CF911F910F91FF90EF90DF90CF90BF9095
:10306000AF909F908F907F906F905F904F903F9028
:103070002F9008952F923F925F926F927F928F923E
:103080009F92AF92BF92CF92DF92EF92FF920F93F7
:103090001F93CF93DF93CDB7DEB72C970FB6F8947D
:1030A000DEBF0FBECDBF582E80917907082F10E0EC
:1030B000007F107015950795159507956AE677E1DD
:1030C000C8018359984F0E948F73892B81F0252D59
:1030D00030E087E290E0289FF001299FF00D389FB3
:1030E000F00D1124EB51F34F808180618083A52C7A
:1030F000BB2487E290E0A89EA001A99E500DB89E37
:10310000500D1124DA01A352B34FFD01868197813E
:10311000FC018081882319F4882499245EC072E21E
:10312000872E912C800E911E80915C07282F30E015
:103130002E5D3F4F80915B0790E0982F8827280FE6
:10314000391F201B310BB401655B784F4B51534F36
:1031500099ECC92E9CE0D92E8BE1E82E81E0F82E67
:1031600039C0FA01808180FD1AC0FB018081FD0118
:1031700064807580F30191913F01FD017582648245
:10318000891711F0D582C482FD0184819581FC01EB
:103190008081882321F4FA01808181608083FB0192
:1031A0008081FD0166807780F30191913F01FD01EF
:1031B00077826682891711F0F782E682FD018681A7
:1031C0009781FC0180816F5F7F4F882331F00894E5
:1031D000811C911C8216930620F287E290E0A89E43
:1031E000B001A99E700DB89E700D1124FB01EB512A
:1031F000F34FE081E0FF85C0E4FF83C082B180939C
:10320000EA02B2E28B2E912C800E911E80915C0717
:10321000282F30E02E5D3F4F80915B0790E0982F84
:103220008827280F391F201B310BA401455B584FFD
:10323000DB01A352B34FF1E1CF2EF1E0DF2EE6E147
:103240006E2EE1E07E2E59C0FA01F080FD0121844E
:103250003284F10181911F01FD0132862186F81629
:1032600011F0D286C186FD0181859285FC018081A5
:103270008823F1F4FA018181823449F0833469F0C2
:10328000813499F48091EA0291E0892703C080910A
:10329000EA0282608093EA0208C08091EA028460B8
:1032A0008093EA0284E18093AC0DFD01D286C18651
:1032B000FD0123843484F10181911F01FD013486D5
:1032C0002386F81611F074866386FD018385948544
:1032D000FC0180814F5F5F4F882361F4FB01EB515C
:1032E000F34F80818F7E80838091EA0282B91092B1
:1032F000EA0207C00894811C911C8216930608F408
:10330000A3CF87E290E0A89E9001A99E300DB89EC1
:10331000300D1124F901E352F34F82819381892BFF
:1033200009F058C1F901E651F34F808180FD52C187
:1033300067E2862E912C800E911E80915C07282FCB
:1033400030E02E5D3F4F80915B0790E0982F8827FB
:10335000280F391F201B310BF401E55BF84F0BC020
:1033600081918D3029F4F401E55BF84F108206C09D
:103370000894811C911C8216930690F387E290E0DA
:10338000A89E9001A99E300DB89E300D1124F90120
:10339000EB51F34F90819295917080917907E82FCE
:1033A000F0E0E07FF070F595E795F595E795E90F8A
:1033B000F11DEE58F84FD901A551B34F20E030E090
:1033C0008CE005C04E3209F49D014D933196408149
:1033D000442321F0403211F08150A0F71C922115B6
:1033E000310511F47D0104C079010894E11CF11C40
:1033F00087E290E0A89E8001A99E100DB89E100D56
:103400001124F801E352F34F86858823B1F460E676
:1034100077E1C8018551934F0E940D7331EFE32E80
:103420003CE0F32EE00EF11E8091340190913501C5
:103430000196909335018093340160E071E0C801FA
:103440008551934F0E94384A6C01892B79F4809101
:103450007907082F10E0007F1070159507951595D6
:1034600007950359184FCC24DD24A5C0F801E65177
:10347000F34F80818160808343E050E06CE577E129
:10348000C7010E941D73892B31F4F801EB51F34FF2
:103490008081897F16C043E050E068E577E1C7018D
:1034A0000E941D73892B39F4F801EB51F34F808191
:1034B000897F846006C0F801EB51F34F8081897FDA
:1034C0008260808387E290E0A89E9001A99E300DE3
:1034D000B89E300D11242352334FF60181A592A5D9
:1034E000A3A5B4A5F901838F948FA58FB68F178EEE
:1034F00010A211A212A213A214A215A216A2C60112
:103500000E942D4A67C0B701C8010E948F730894BA
:10351000C11CD11C892B09F44EC04CE050E0B7010E
:103520006E010894C11CD11CC6010E94437387E23E
:1035300090E0A89E7001A99EF00CB89EF00C11249A
:1035400085EE9CE0E80EF91EF7011081197F1260EC
:10355000108363E577E1C6010E948F73892B11F018
:10356000197F10C06EE477E1C6010E948F73892B2A
:1035700039F469E477E1C6010E948F73892B21F049
:10358000197F1260F7011083F301EE0FFF1FEE0F9A
:10359000FF1FEE5AFA4E2591349187E290E0A89EE3
:1035A000F001A99EF00DB89EF00D1124E352F34FE7
:1035B000338322830FC06C2C7724F301EE0FFF1F9F
:1035C000EE0FFF1FE05BFA4EE590F490E114F1047A
:1035D00009F099CF87E290E0A89E9001A99E300D56
:1035E000B89E300D1124D901A352B34FFD0186813D
:1035F0009781FC018081882331F4F901EB51F34F6D
:10360000E081E4FF17C086E190E0A89E8001A99EBA
:10361000100DB89E100D11240B5B134F80E1F801C3
:10362000808B652D80E090E00E94972881E090E0FB
:10363000F80134C0E0FD35C086E190E0A89E70013D
:10364000A99EF00CB89EF00C112485E49CE0E80ED5
:10365000F91EF701808983FF24C08CE297E1FD0108
:10366000938382838091790790E0807F9070959515
:1036700087959595879541E850E06CE176E183590F
:10368000984F0E94E67288E1F701808B652D81E8F2
:1036900090E00E94972882E090E0F701928B818B66
:1036A00099C087E290E0A89E9001A99E300DB89E37
:1036B000300D1124D901A352B34FFD0182819381B2
:1036C000892BD1F4F901E651F34F808180FD14C0BC
:1036D0008EED91E0FD0193838283F901EB51F34F6D
:1036E0008081897F8083809134019091350101969A
:1036F000909335018093340186E190E0A89EF0011B
:10370000A99EF00DB89EF00D1124EB5BF34F82E003
:1037100090E0928B818B87E290E0A89EF001A99EB9
:10372000F00DB89EF00D1124EB51F34F808186957A
:10373000837090E08130910599F08230910529F1F4
:10374000892BB9F58091790790E0807F90709595ED
:1037500087959595879547E550E06CE675E10DC036
:103760008091790790E0807F9070959587959595E9
:10377000879547E550E064EC75E18359984F0E94C6
:10378000E672F7E58F2E912C14C08091790790E0B6
:10379000807F907095958795959587954DE850E039
:1037A0006EE976E18359984F0E94E6727DE8872E94
:1037B000912C86E190E0A89EF001A99EF00DB89EA4
:1037C000F00D1124EB5BF34F88E1808B652DC40174
:1037D0000E9497282C960FB6F894DEBF0FBECDBF7F
:1037E000DF91CF911F910F91FF90EF90DF90CF90DD
:1037F000BF90AF909F908F907F906F905F903F9021
:103800002F900895EF92FF921F93CF93DF93182F7D
:10381000E82EFF2486E190E0E89EE001E99ED00DCD
:10382000F89ED00D1124CB5BD34F888980FD33C027
:1038300089899A89019719F4812F0E94E81589894D
:103840009A89039720F4812F0E943A1824C089890D
:103850009A89039748F089899A898E5F9F4F20F44F
:10386000812F0E942A1617C086E190E0E89EF001A1
:10387000E99EF00DF89EF00D1124EB5BF34F81896A
:1038800092898E5F9F4F38F08EEF9FEF928B818BE6
:10389000812F0E94B829DF91CF911F91FF90EF9067
:1038A000089569EC7CE086E091E00E94461462E0B5
:1038B0007CE180E590E00E94FD240895BF92CF92C4
:1038C000DF92EF92FF920F931F93CF93DF93CDB7C9
:1038D000DEB764970FB6F894DEBF0FBECDBF0E946F
:1038E0003063BB24B394B092A50D1092B30D109227
:1038F000B20D0E94BE6C8AE080934A0787E797E189
:103900009F938F931F921F920E94C76C6091D70E56
:103910007091D80E882777FD8095982F0E94A56E0C
:1039200020E030E040E251E40E94F06D7E01089416
:10393000E11CF11C870121E045E00E94A070C70155
:103940000E94B06C80E2C82E81E0D82EC6010E9491
:10395000B06C8FE697E19F938F931F92BF920E9466
:10396000C76C6091D90E7091DA0E882777FD80952B
:10397000982F0E94A56E20E030E040E251E40E94C2
:10398000F06D21E045E00E94A070C7010E94B06C7C
:10399000C6010E94B06C8DB79EB708960FB6F8941A
:1039A0009EBF0FBE8DBF64960FB6F894DEBF0FBEEC
:1039B000CDBFDF91CF911F910F91FF90EF90DF90DE
:1039C000CF90BF9008952F923F924F925F926F9247
:1039D0007F928F929F92AF92BF92CF92DF92EF929F
:1039E000FF920F931F93CF93DF93CDB7DEB7669708
:1039F0000FB6F894DEBF0FBECDBF87E081B917B810
:103A00001AB860E076E980E090E00E94593386E3DE
:103A100091E09093FC0E8093FB0E88E498E19F93D5
:103A20008F930E944B7480E298E19F938F930E9442
:103A30004B748BEE97E19F938F930E944B7480E0C1
:103A400090E0A0E0B0E02DB73EB72A5F3F4F0FB641
:103A5000F8943EBF0FBE2DBF00000196A11DB11D01
:103A6000803432E493073FE0A30730E0B307A1F7C7
:103A70000E94D4300E94F12D0E94511C0E940C30F3
:103A80000E948D6C0E94BE6C8AE080934A078EED86
:103A900097E19F938F931F921F920E94C76CEA9A9F
:103AA00078940E94686A0E94F6200E943A240E943C
:103AB000D7460E94F64A0E94996D0E9401630F90BA
:103AC0000F900F900F906E010894C11CD11C10EC48
:103AD000212E17E1312EB7EB6B2EB7E17B2EA1EA39
:103AE0004A2EA7E15A2EF3E0EF2EF12CEC0EFD1E2C
:103AF000E0E2AE2EE1E0BE2E7FE7872E77E1972E43
:103B00008091A00D882309F441C00E946632809103
:103B1000A00D81508093A00D8091380C826080931D
:103B2000380C8091AC0D882351F08091AC0D815000
:103B30008093AC0D8091AC0D882309F4129880918C
:103B4000AD0D8823A1F08091AD0D81508093AD0D16
:103B50008091AD0D882359F48091AE0D9091AF0DF9
:103B6000892B29F0E091AE0DF091AF0D0995809170
:103B70004A07882359F080914A07815080934A0769
:103B800080914A07882311F40E94BE6C8091B10D88
:103B9000882369F01092B10D8091B20D9091B30D10
:103BA000892B29F0E091B20DF091B30D09950E9497
:103BB000BA4A8091A40D882339F00E94AB6181E05C
:103BC0008093A10D1092A40D8091A10D882331F056
:103BD00080E090E00E9400621092A10D8091A30D00
:103BE000882341F0C6010E940132C6010E94FC6098
:103BF0001092A30D8091A20D882361F01092A20D66
:103C00000E94A3638093B00D8EE59CE19093B30D69
:103C10008093B20D8091A50D882321F00E943E6013
:103C20001092A50D8091A80D882309F46CC0809195
:103C3000A80D80FF0DC08091AA0D80FD09C0809164
:103C4000D80D9091D90D01969093D90D8093D80DF0
:103C50008091A80D81FF39C08091AA0D81FD0DC012
:103C600080913A0E90913B0EA0913C0EB0913D0E8A
:103C70009093DB0D8093DA0D28C020913A0E30919D
:103C80003B0E40913C0E50913D0E8091DA0D90918B
:103C9000DB0DA0E0B0E0281B390B4A0B5B0B5F93F8
:103CA0004F933F932F9323EC37E13F932F930E9441
:103CB0004B741092DB0D1092DA0D8DB79EB70696FD
:103CC0000FB6F8949EBF0FBE8DBF8091A80D86FFE2
:103CD0000DC08091AA0D81FD09C08091DC0D9091ED
:103CE000DD0D01969093DD0D8093DC0D8091A80D84
:103CF00087FF07C08091AA0D87FD03C081E00E9465
:103D000006221092A80D0E94F82C80913F0E80FF91
:103D10002AC03F922F920E944B7480E49EE00E9442
:103D200053440F900F90882369F02BE731E03F93C5
:103D30002F937F926F920E944B740F900F900F9071
:103D40000F9008C08DEA97E19F938F930E944B7468
:103D50000F900F908BB190E489278BB980913F0E23
:103D60008E7F80933F0EF8944091EF0E5091F00EAD
:103D70001092F00E1092EF0E78944115510509F44F
:103D8000A5C08091B40D9091B50D4817590709F45D
:103D90009DC05093B50D4093B40DCA018095909588
:103DA000880F892F881F990B282F2074842F8F73D9
:103DB000282B2D3039F40E9430631092B60D0E94EA
:103DC000BE6C1DC0203169F48091B60D8150809386
:103DD000B60D8091B60D87FF12C087E08093B60DB7
:103DE0000EC0213109F08DC08091B60D8F5F809398
:103DF000B60D8091B60D883014F01092B60D8EE19C
:103E000080934A078091B60D992787FD909501967A
:103E10009F938F935F924F921F921F920E94C76C45
:103E2000E091B60DFF27E7FDF095EE0FFF1FE95279
:103E3000F14F60817181882777FD8095982F0E94CE
:103E4000A56E20E030E040E251E40E94F06D870171
:103E500021E045E00E94A070C7010E94B06CC5013E
:103E60000E94B06C2DB73EB72A5F3F4F0FB6F89453
:103E70003EBF0FBE2DBF2AC01092790E1092780E51
:103E8000E22FF0E0EE0FFF1FE251F54E2591349145
:103E900080E090E0F901099519C030E096E0559571
:103EA00047959A95E1F7842F8F7190E03F932F9378
:103EB0009F938F939F928F920E944B748DB79EB762
:103EC00006960FB6F8949EBF0FBE8DBF8091BF0DB2
:103ED0009091C00D892B41F480E29CE19093C00D3C
:103EE0008093BF0D0E9472208091A70D882331F02E
:103EF0008091A70D0E9406228093A70D0E94C32ED9
:103F0000FFCD80917601281708F4B6CFC6CFEF9287
:103F1000FF920F931F93E0909D07F0909E070091F2
:103F20009F071091A007212F332744275527D80139
:103F3000C70180709070B070892F9A2FAB2FBB276C
:103F4000280F391F4A1F5B1F205F314F4F4F5F4FB4
:103F5000D801C7018070A070B070BA2FA92F982F18
:103F60008827280F391F4A1F5B1F1E2D0027FF249B
:103F7000EE242E0D3F1D401F511F20939D073093AF
:103F80009E0740939F075093A00720933A0E3093CB
:103F90003B0E40933C0E50933D0E60913A0E709153
:103FA0003B0E80913C0E90913D0E20E831E541E0C2
:103FB00050E00E94DD7925513A4948E00BC02D566A
:103FC0003140842F90E083709070892B11F4215040
:103FD00030404F5F81E02E36380788F74093F40D6C
:103FE000C9010E94AF3060913A0E70913B0E8091F2
:103FF0003C0E90913D0E20E13EE040E050E00E94FA
:10400000DD79CA01B90128E130E040E050E00E94CA
:10401000DD796093380E60913A0E70913B0E80917D
:104020003C0E90913D0E2CE330E040E050E00E94C9
:10403000DD79CA01B9012CE330E040E050E00E9494
:10404000DD796093370E60913A0E70913B0E80914E
:104050003C0E90913D0E2CE330E040E050E00E9499
:10406000DD796093360E8091F50D833098F1809163
:10407000F50D8B3078F580913E0E2091F30D90E098
:10408000821B9109499774F08091F30D882321F4E4
:104090008091380E823030F08091F50D90E08A30BA
:1040A00039F405C08091F50D90E0833009F491E07A
:1040B00081E098278091380E980F9093380E809168
:1040C000380E883138F08091380E88518093380E40
:1040D0000E942E3181E08093A40D1F910F91FF90DB
:1040E000EF900895AF92BF92CF92DF92EF92FF923E
:1040F0000F931F93CF93DF93E090B70DF090B80D1F
:104100000091B90D1091BA0DE114F10401051105EA
:1041100069F467EB7DE084E491E00E941C6A84E02E
:1041200090E09093C00D8093BF0D55C045E55AE0D7
:1041300064EC78EB82E390E00E949524E616F706A3
:104140000807190791F020E030E0F999FECFF90156
:10415000E954F24F8081D901D296082E0E94517AFB
:104160002F5F3F4F2430310580F3C801B7010E9413
:10417000272D813081F5CC24DD24C9E5D8E1F6E591
:10418000AF2EF1E0BF2EFE0121968491D601A55BF2
:10419000B84FFD0182A744E050E0BE01C5010E9476
:1041A0001D73F6013196892B29F06F0184E0E63802
:1041B000F80749F7980187014BE750E06CEF78E08A
:1041C000CF010E94452E1092B70D1092B80D10929B
:1041D000B90D1092BA0DDF91CF911F910F91FF9001
:1041E000EF90DF90CF90BF90AF90089567E87FE1A8
:1041F0008CEF98E00E9430251092B70D1092B80D08
:104200001092B90D1092BA0D0E94722008956F920B
:104210007F928F929F92AF92BF92CF92DF92EF9256
:10422000FF920F931F93CF93DF93CDB7DEB7C555A2
:10423000D0400FB6F894DEBF0FBECDBFF82E8091F0
:10424000790790E0807F90709595879595958795F3
:104250008359984F9A8389836BE571E08DE591E0EE
:104260000E94384A8C01892B91F4EE24FF245CC013
:1042700042E050E0B401C6010E943573892BB9F4C5
:10428000C5010E94C872E816F90651F110C055E048
:10429000C52ED12CCC0EDD1E48EC842E48E1942E88
:1042A000EF2CFF2437E0A32EB12CAC0EBD1EA801CD
:1042B00061E570E0C6010E949049892BC9F610C0E3
:1042C00042E050E0B301C6010E943573892B49F1E9
:1042D000A401B501C6010E947F6AE80EF91E14C050
:1042E000EE24FF2425E0C22ED12CCC0EDD1E95EC51
:1042F000692E98E1792E83E0882E912C8C0E9D1EDC
:104300005E010894A11CB11CA80161E570E0C60122
:104310000E949049892B29F086E1E81684E0F8068E
:1043200078F2C8010E942D4AC701CB5ADF4F0FB661
:10433000F894DEBF0FBECDBFDF91CF911F910F91DB
:10434000FF90EF90DF90CF90BF90AF909F908F90B5
:104350007F906F9008958F929F92AF92BF92CF926D
:10436000DF92EF92FF920F931F93CF93DF934C0155
:10437000EB015A016BE571E08DE591E00E94384A4E
:104380007C01892BD9F4C0E0D0E032C042E050E09B
:10439000B401CE010E943573892BA9F48881833240
:1043A00059F40091E00D10E0C6010E94C872081790
:1043B000190749F4249610C023960EC072E0C72E48
:1043C000D12CCC0EDD1EA701B501CE010E94904973
:1043D000892BE1F6C0E0D0E0C7010E942D4AFE0122
:1043E00001900020E9F7339780818D3009F4108225
:1043F000CE01DF91CF911F910F91FF90EF90DF9051
:10440000CF90BF90AF909F908F900895EF92FF92C2
:104410000F931F93CF93DF93CDB7DEB7C155D04035
:104420000FB6F894DEBF0FBECDBF182F8091E10DFF
:104430009091E20DA091E30DB091E40D0097A105DC
:10444000B10509F040C08091DF0D8130A9F42091C1
:104450003A0E30913B0E40913C0E50913D0E8091B2
:10446000E70D9091E80DA091E90DB091EA0D2817A4
:1044700039074A075B0758F141E550E0BE016F5F1D
:104480007F4F8BEC98E10E94AB21009709F476C036
:1044900061EE7DE00E941C6A81E08093DF0D8091D7
:1044A0003A0E90913B0EA0913C0EB0913D0E0396BA
:1044B000A11DB11D8093E70D9093E80DA093E90D28
:1044C000B093EA0D04C08091DE0D80FF03C0812F00
:1044D00090E056C01093E00D2091E50D3091E60D6F
:1044E00080913A0E90913B0EA0913C0EB0913D0E02
:1044F0008901080F191F83E0083E180710F40851BE
:104500001C4FB801C9010E9416251093E60D0093B7
:10451000E50D6091E10D7091E20D8091E30D9091B8
:10452000E40D0E94272D882349F180E090E0A0E06F
:10453000B0E000000196A11DB11D803824E892076B
:104540002EE1A20720E0B207A1F7E090E60DF0907F
:10455000E50D6091E10D7091E20D8091E30D909178
:10456000E40D970140E059E10E944D298AE08093D3
:10457000DF0D8091DE0D81608093DE0D80E090E0A4
:10458000CF5ADF4F0FB6F894DEBF0FBECDBFDF911D
:10459000CF911F910F91FF90EF900895CF92DF92EE
:1045A000FF920F931F93CF93DF93CDB7DEB7C15523
:1045B000D0400FB6F894DEBF0FBECDBFF82EC82E88
:1045C000DD2486E190E0C89EF001C99EF00DD89EE2
:1045D000F00D1124EB5BF34F808980FD3EC080918C
:1045E0007907082F10E0007F107015950795159535
:1045F00007950359184FF801808190E0C0970A97FA
:1046000008F029C1818190E0C0970A9708F023C182
:10461000828190E0C0970A9708F01DC1C8010E94EE
:10462000C872AC018091DF0D8C3049F4F1E0473F56
:104630005F0729F48EE08093DF0D4BEE50E0209170
:10464000DF0D233181F081E0443F580720F4E1E0A1
:10465000433C5E0741F41092DF0D8091DE0D8E7FAA
:104660008093DE0DF8C086E190E0C89EF001C99EFF
:10467000F00DD89EF00D1124EB5BF34F88E1808B99
:104680002F3009F497C0203190F42C3009F447C042
:104690002D3030F42A30F1F02B3009F0CFC029C092
:1046A0002D3009F44FC02E3009F0C8C06AC0223145
:1046B00009F4A7C0233138F4203109F494C0213122
:1046C00009F0BCC098C0233109F4A6C0243109F018
:1046D000B5C0ADC04C3D510509F0B0C042E150E05D
:1046E0006DE878E1C8010E94E6726F2D81E190E0EB
:1046F0000EC04A3F510509F0A1C04DE050E06FE9FE
:1047000078E1C8010E94E6726F2D8CE090E00E9473
:1047100097288091DF0D8F5F8093DF0D8FC04E54FF
:10472000514009F08BC040E550E0BE016F5F7F4F04
:1047300087EF98E10E94AB21B8010E94461464EF14
:1047400078E112C04E54514009F078C040E550E085
:10475000BE016F5F7F4F81EF98E10E94AB21B801EE
:104760000E9446146EEE78E1C8010E940273F801BF
:1047700001900020E9F731976F2DCF01801B910B3D
:10478000C6CF4B3E510509F059C063EE78E1C80130
:104790000E940D7340E550E0BE016F5F7F4F80EED9
:1047A00098E10E94AB21BC01C8010E94B4736DED79
:1047B00078E1DACF4A3F510509F040C064ED78E175
:1047C000C8010E940D7340E550E0BE016F5F7F4F4E
:1047D00081ED98E10E94AB21BC01C8010E94B47335
:1047E0006EEC78E1C1CF4A3F510541F547E050E01A
:1047F00063EB78E115C08091E00D0E9407216F2DD9
:1048000086CF44E050E06AEB78E1C8010E94E6728E
:104810006F2D83E090E07BCF47E050E06EEB78E1D6
:10482000C8010E94E6726F2D86E090E070CF809103
:10483000DE0D8E7F8093DE0D1092DF0D86E190E01D
:10484000C89EF001C99EF00DD89EF00D1124EB5BBF
:10485000F34F8FEF838BCF5ADF4F0FB6F894DEBF45
:104860000FBECDBFDF91CF911F910F91FF90DF90D1
:10487000CF9008958091DE0D8E7F8093DE0D109293
:10488000DF0D1092E10D1092E20D1092E30D1092E7
:10489000E40D8AEE96EF9093E60D8093E50D8FEF91
:1048A0009FEFAFEFBFEF8093E70D9093E80DA093DC
:1048B000E90DB093EA0D6EEC72E28AEE96EF0E947B
:1048C000FD240895292F382FC9010895EF92FF92F2
:1048D0000F931F937B018C01607070709070672F35
:1048E000782F892F9927212F332744275527620FA7
:1048F000731F841F951FA80197012070407050708E
:10490000542F432F322F2227620F731F841F951FAE
:104910001E2D0027FF24EE246E0D7F1D801F911F8A
:104920001F910F91FF90EF900895EF92FF920F93D8
:104930001F93CF93DF93CDB7DEB724970FB6F894CC
:10494000DEBF0FBECDBF8C019A01AB0160E07E01DE
:104950000894E11CF11CF999FECFE62FF0E0DF018D
:10496000A00FB11F0E94497A802DEE0DFF1D80839C
:104970006F5F643080F369817A818B819C816F3FA6
:10498000EFEF7E07EFEF8E07EFEF9E0711F4CA01FE
:10499000B90124960FB6F894DEBF0FBECDBFDF91EC
:1049A000CF911F910F91FF90EF90089520E030E09C
:1049B000F901EE0FFF1FE20FF31FEE0FFF1FEE0FC7
:1049C000FF1FE450F44F82859385892B59F41082A0
:1049D0001182128213821482158216821782108627
:1049E000118605C0828593850197938782872F5F03
:1049F0003F4F25303105E1F60895DC0120E030E03D
:104A0000422FE22FF0E02F5F3F4FEE0FFF1FEE0F20
:104A1000FF1FE551FD4F80819181892B89F7463039
:104A200020F4B183A08373836283089540E050E053
:104A3000A42FE42FF0E0EE0FFF1FEE0FFF1FE55154
:104A4000FD4F208131812115310529F04F5F5F4FE6
:104A50002817390769F7A63010F471836083089529
:104A6000DC0120E030E0422FE22FF0E02F5F3F4FEB
:104A7000EE0FFF1FEE0FFF1FED5FFC4F8081918156
:104A8000892B89F7463020F4B183A0837383628336
:104A900008959C01E3E0F3E0808191818217930700
:104AA00011F411821082349683E0EB31F807A1F7FC
:104AB00008951F920F920FB60F9211248F93809139
:104AC000380C81608093380C10921D0310921E03E5
:104AD00010921F0310922003EA988F910F900FBE3F
:104AE0000F901F901895CF93DF93C0915707D091E7
:104AF000580760E070E086E0C830D807C1F4FB01D9
:104B0000EE0FFF1FE60FF71FEE0FFF1FEE0FFF1F49
:104B1000E450F44F268137814085518580916707A5
:104B200090916807A0916907B0916A071AC0C830D0
:104B3000D105E9F4FB01EE0FFF1FE60FF71FEE0FA3
:104B4000FF1FEE0FFF1FE450F44F26813781408591
:104B500051858091650790916607A0916707B09194
:104B60006807281739074A075B0709F45BC06F5FBE
:104B70007F4F6530710509F0BECF20E030E0F901CC
:104B8000EE0FFF1FE20FF31FEE0FFF1FEE0FFF1FD1
:104B9000E450F44F86819781A085B1850097A105E7
:104BA000B10509F044C086E0C830D807D9F4809137
:104BB00051078083809152078183809153078283BC
:104BC0008091540783838091550784838091560791
:104BD00085838091670790916807A0916907B091DC
:104BE0006A071CC0289749F58091510780838091FE
:104BF0005207818380915307828380915407838376
:104C0000809155078483809156078583809165073D
:104C100090916607A0916707B09168078683978394
:104C2000A087B18784E690E09387828706C02F5FD4
:104C30003F4F2530310509F0A2CFDF91CF91089584
:104C4000AB01BC0180E090E09C01FC01EE0FFF1F76
:104C5000E80FF91FEE0FFF1FEE0FFF1FE450F44F98
:104C600086819781A085B18584179507A607B70728
:104C700039F0C90101968530910531F725E030E022
:104C8000C9010895CF93DF93EC01CB01BA010E94D3
:104C90002026853008F5DE0140E050E090E09C01E0
:104CA000220F331F280F391F220F331F220F331FEC
:104CB000F901E40FF51FE450F44F80818C93FA0161
:104CC000EE58F14F8081FD0186834F5F5F4F119653
:104CD0004630510569F0ECCFA2E7BEE0FE018FEF50
:104CE00080838D91868331968EE0A837B807B9F717
:104CF000DF91CF910895EF92FF920F931F93FC01E4
:104D000079018A0110C080812181329690E0982F2C
:104D10008827820F911DA0E0B0E0E80EF91E0A1F5F
:104D20001B1F625070406230710568F7672B51F0AD
:104D3000808190E0982F8827A0E0B0E0E80EF91E6F
:104D40000A1F1B1F9801442755278FEF9FEFA0E0F4
:104D5000B0E0E822F9220A231B232E0D3F1D401F3D
:104D6000511FCA01AA27BB2740705070820F931FA2
:104D7000A41FB51F809590951F910F91FF90EF9004
:104D800008956F927F928F929F92AF92BF92CF922F
:104D9000DF92EF92FF920F931F936C013A014B0148
:104DA0008C01025F1F4F0E94422688E090E0F601CE
:104DB0009587848720911B0330911C032F5F3F4F01
:104DC00030931C0320931B0380E490E0F801978349
:104DD000868380E88087E32EF22EF582E48285E4E4
:104DE000F6018687F8011182608A718A828A938A25
:104DF0008091390C90913A0CA0913B0CB0913C0CF5
:104E000084879587A687B7871386128620E030E0CF
:104E100040E050E064E170E0C8010E947B26A92ECA
:104E2000B82EF801B386A2861F910F91FF90EF90E4
:104E3000DF90CF90BF90AF909F908F907F906F90BA
:104E40000895CF92DF92EF92FF920F931F93CF932B
:104E5000DF93AC014E5D5F4F8C01025F1F4FE80195
:104E6000CC84DD84EE84FF84E0E0F0E086E190E035
:104E7000E89FE001E99FD00DF89FD00D1124CB5B96
:104E8000D34F88819981AA81BB818C159D05AE0580
:104E9000BF0509F046C02C813D81DA018D919C91BE
:104EA00028173907F1F5FA0180859185A285B38528
:104EB00088879987AA87BB8784819581A681B781D6
:104EC0008C879D87AE87BF878585888B8B898F3F31
:104ED00011F083E08B8BF80163817281FA01848584
:104EE00090E0807F90709595879595958795681B44
:104EF000790B645170407B0100E010E06C857D858A
:104F00008E859F850E946624E60EF71E081F191FD6
:104F1000C801B7010E9466246C877D878E879F87B2
:104F20004DC03196E530F10509F0A0CF20E030E02A
:104F300086E190E0289FB001299F700D389F700D89
:104F40001124FB01EB5BF34F80819181A281B3813E
:104F50000097A105B10561F5C082D182E282F3829A
:104F6000DA018D919C9195838483EA018A819B81EA
:104F70009783868388859985AA85BB858087918755
:104F8000A287B3878C819D81AE81BF8184879587FD
:104F9000A687B7878D85808B128A118A83E0838BE1
:104FA000148AFB01E65AF34F80818E7F808306C00E
:104FB0002F5F3F4F2530310509F0BACFDF91CF91F8
:104FC0001F910F91FF90EF90DF90CF900895EF9297
:104FD000FF920F931F937B018C0180E090E09C0176
:104FE00086E190E0289FF001299FF00D389FF00D99
:104FF0001124EB5BF34F80819181A281B3818E15E7
:105000009F05A007B10729F484819581841795072E
:1050100039F0C90101968530910509F725E030E0A6
:10502000C9011F910F91FF90EF90089540E050E06B
:10503000E42FF0E0EE0FFF1FEE0FFF1FED5FFC4FC0
:1050400080819181009771F04F5F5F4F20917007D1
:1050500030916F078217930759F70280F381E02D93
:1050600080E0099508950F931F93CF93DF93682FE6
:105070000BEE12E0E0E0F0E0282F30E086E190E077
:10508000289FD001299FB00D389FB00D1124AB5B34
:10509000B34FED018E819F81492F582FE801888100
:1050A00099818417950739F031960C5F1F4FE730CF
:1050B000F10571F0EECFE63058F4EE0FFF1FEE0F62
:1050C000FF1FE551FD4F0280F381E02D862F0995EA
:1050D000DF91CF911F910F910895863038F5282FD9
:1050E00030E086E190E0289FD001299FB00D389FE5
:1050F000B00D1124FD01EB5BF34F1082118212827F
:1051000013821582148217821682108611861286E7
:1051100013861486158616861786108A128A118AB7
:10512000138AA65AB34F8C918E7F8C930895AF92B9
:10513000BF92CF92DF92EF92FF920F931F93CF9384
:10514000DF938C0170E086E190E0689FE001699F49
:10515000D00D789FD00D1124CB5BD34F8E819F81D2
:1051600090936E0780936D078C819D81909370075B
:1051700080936F071092800710927F0784E09CE471
:1051800090937C0780937B0780E5809379076C85FB
:105190007D858E859F850E9466249B01AC01888950
:1051A00080937A07888981FF14C02F5F3F4F4F4F4C
:1051B0005F4F82E08093810784E080938207809331
:1051C00083078CE48093840780E68093790704E06A
:1051D00010E0CA01B9010E946624609375077093BC
:1051E0007607809377079093780788859985AA85B5
:1051F000BB858093710790937207A0937307B09358
:105200007407C8018896E92EF82EF0925C07E092A8
:105210005B0786E080936207488159816A817B81C0
:105220008BE497E00E94C12610927E0710927D07C2
:10523000C0905C07D0905B07B601685F7F4F80919C
:10524000590790E08F709070880F991F880F991FF1
:10525000681B790B625070409B0140E050E06E5F2C
:105260007F4F85E697E00E947B26A92EB82EB0924C
:105270007E07A0927D076BE477E0C801C6960E9486
:10528000CD34188ADF91CF911F910F91FF90EF904D
:10529000DF90CF90BF90AF9008958F929F92AF9282
:1052A000BF92DF92EF92FF920F931F93CF93DF9302
:1052B0007B018C015A014901EA9820E030E0D22EAE
:1052C00086E190E0289FE001299FD00D389FD00D06
:1052D0001124CB5BD34F88819981AA81BB81009730
:1052E000A105B105F1F4822F0E946D28E882F982B0
:1052F0000A831B83BD82AC829F828E8282ED94E002
:10530000A0E0B0E088879987AA87BB8789E299E007
:10531000A0E0B0E08C879D87AE87BF878EE18B8B46
:1053200006C0D3942F5F3F4F2530310541F62D2D18
:1053300030E086E190E0289FF001299FF00D389F32
:10534000F00D1124EB5BF34F82E0808B6D2D80E03C
:1053500090E00E949728EA9ADF91CF911F910F91D8
:10536000FF90EF90DF90BF90AF909F908F90089547
:10537000482F50E026E130E0429FF001439FF00DBE
:10538000529FF00D1124EB5BF34F2FEF3FEF328B69
:10539000218B91E1908B682F80E090E00E9497280C
:1053A0000895FF920F931F93CF93DF9320E030E097
:1053B000022F10E0F801EE0FFF1FEE0FFF1FE55167
:1053C000FD4F0190F081E02D309709F451C12F5F1E
:1053D0003F4F8091700790916F07E817F90741F7E9
:1053E00020917A0721FF46C024FF44C08BE497E058
:1053F0000E94212740916D0750916E0760916507CB
:105400007091660780916707909168070E94E7276F
:10541000F82E24E0281708F42BC1282F30E086E16D
:1054200090E0289F8001299F100D389F100D1124B6
:105430000B5B134F8EE1E8018B8B6C857D858E8530
:105440009F850E9466246F5F7F4F8F4F9F4F0E9402
:105450006624F801648775878687978780E1808B4B
:105460006F2D80E090E00E94972881E090E09A8B79
:10547000898BFEC0223051F58BE497E00E942127F2
:1054800040916D0750916E076091650770916607B6
:1054900080916707909168070E94E727682F853001
:1054A00008F0E6C0282F30E086E190E0289FF00168
:1054B000299FF00D389FF00D1124EB5BF34F82E133
:1054C000808B80E090E00E949728D2C040916D07C9
:1054D00050916E076091650770916607809167072C
:1054E000909168070E94E727F82EE4E0E81760F53E
:1054F00080917A0780FD02C082FFBAC08BE497E0FA
:105500000E9421272F2D30E086E190E0289FE001C6
:10551000299FD00D389FD00D1124CB5BD34F6C85C4
:105520007D858E859F850E9466246F5F7F4F8F4F9C
:105530009F4F0E9466246C877D878E879F8788890E
:1055400080FF3FC080E137C08BE497E00E942127B5
:105550004F2D50E086E190E0489FE001499FD00D3B
:10556000589FD00D1124CB5BD34F888980FD03C099
:10557000888982FF2AC06C857D858E859F850E94E3
:1055800066246F5F7F4F8F4F9F4F0E9466246C870A
:105590007D878E879F87888980FF13C0000F111F2A
:1055A000000F111F05511D4FF801228133818F2DEE
:1055B000F901099581E1888B6F2D80E090E00E94D0
:1055C00097288F2D0E946D2853C0888983FF0BC0B8
:1055D000888984FF08C089899A8901969A8B898B6A
:1055E00088E1888B3AC086E190E0489F9001499F0E
:1055F000300D589F300D1124F901EB5BF34F80897A
:1056000084FF0AC0F901E65AF34F808180FD04C08F
:105610008081816080832CC086E190E0489FF0010A
:10562000499FF00D589FF00D1124DF01AB5BB34F84
:10563000ED01888984FF1CC0E65AF34F808180FF0A
:1056400017C089899A898F5F9F4F91F080E1888B7D
:1056500089899A8901969A8B898B000F111F000FF7
:10566000111F05511D4FE801EA81FB818F2D09951E
:10567000DF91CF911F910F91FF900895CF93DF930A
:10568000C0E0D0E086E190E0C89FF001C99FF00D36
:10569000D89FF00D1124EB5BF34F8389882309F524
:1056A00080819181A281B3810097A105B105F9F0B4
:1056B00083E0838B84898F5F848B8150863068F090
:1056C000EA9884E1808B6C2F80E090E00E9497281C
:1056D000EA9A8C2F0E946D280AC08C2F0E943328D2
:1056E00006C083898F3F19F083898150838B21966F
:1056F000C530D10539F6DF91CF910895AF92BF92B1
:10570000CF92DF92EF92FF920F931F9340936D071A
:1057100020936E07F0927207E0927107109374075E
:10572000009373071092700710926F0720E034E522
:1057300030935C0720935B0721E0209362070BE422
:1057400017E0AB01BC01C8010E94C126C0905C07F4
:10575000D0905B078091590790E08F709070880F10
:10576000991F880F991FC81AD90A20E030E040E03D
:1057700050E0B6018DE697E00E947B26A92EB82E58
:10578000B0927007A0926F07B80182E690E00E9485
:10579000CD341F910F91FF90EF90DF90CF90BF908D
:1057A000AF900895CF93DF93C9E5D7E08091590773
:1057B00090915A078050914009F099C080915B0701
:1057C00090915C07089709F092C080915D07863040
:1057D00009F08DC080915E07843009F088C0209167
:1057E000710730917207409173075091740780914F
:1057F000390C90913A0CA0913B0CB0913C0C2817BD
:1058000039074A075B0709F072C080915F079091E2
:105810006007E1E080309E0709F064C00E947325B4
:1058200040916707509168076091690770916A0716
:10583000CE010E970E94422688E096E0909358078A
:105840008093570760916707709168078091690797
:1058500090916A070E942026853008F5DE0140E01D
:1058600050E090E09C01220F331F280F391F220FB8
:10587000331F220F331FF901E40FF51FE450F44FDB
:105880008081FD01828BFA01EE58F14F8081FD018C
:1058900080874F5F5F4F11964630510561F780E07A
:1058A00092E09F838E838091670790916807A09113
:1058B0006907B0916A07888F998FAA8FBB8F8091F3
:1058C000390C90913A0CA0913B0CB0913C0C8E8716
:1058D0009F87A88BB98B6BE477E08CE390E00E9404
:1058E000CD3405C08050924011F40E947325DF91A1
:1058F000CF910895EF92FF920F931F9380915707D6
:105900009091580726E08830920719F40E94D22B14
:105910006AC0089709F067C02091690730916A074B
:1059200040916B0750916C078091390C90913A0C23
:10593000A0913B0CB0913C0C281739074A075B0734
:1059400009F046C00E947325809162078130B9F545
:1059500080916D078823C1F0883009F044C0E09041
:105960007107F090720700917307109174076091AE
:10597000650770916607809167079091680720E03E
:1059800040E00E947E2B2FC02091EB0D3091EC0D5A
:105990004091ED0D5091EE0D809165079091660755
:1059A000A0916707B0916807281739074A075B0776
:1059B000D1F48091F00D81608093F00D14C0863099
:1059C00011F40E94D12980916207813161F409C0EC
:1059D0002F5F3F4F4F4F5F4F31F48091620781310E
:1059E00011F40E9416281F910F91FF90EF900895D7
:1059F000CF93DF938091380C81FF09C00E943E2B2A
:105A00000E94D6248091380C8D7F8093380C809131
:105A1000380C80FD0FC018C0BE0180EB94E00E94DE
:105A20003835FC01892B41F0E55BF84F11820E946B
:105A30007A2C02C0CBE4D7E01A9BEECF8091380CD1
:105A40008E7F8093380CEA9ADF91CF9108958F92E0
:105A50009F92AF92BF92CF92DF92EF92FF920F93FD
:105A60001F93CF93DF93CDB7DEB7AA970FB6F89405
:105A7000DEBF0FBECDBF4B015C011FE0C12ED12C9C
:105A8000CC0EDD1E8091410C9091420CA091430CF4
:105A9000B091440C85017401E822F9220A231B23EA
:105AA0002091390C30913A0C40913B0C50913C0CB8
:105AB00082239323A423B523E816F9060A071B07BC
:105AC00019F48501740108C0E0903D0CF0903E0C83
:105AD00000913F0C1091400C88E096E09E878D87E6
