:100000000C94DD110C94FA110C94FA110C94441513
:100010000C94B8640C94FA110C94CD640C94E864BC
:100020000C94FA110C94FA110C94FA110C94FA1124
:100030000C94FA110C942E220C94FA110C94FA11CF
:100040000C94FA110C94FA110C94FA110C94FA1104
:100050000C94EA130C94FA110C94FA110C94FA1102
:100060000C94FA110C94FA110C94FA110C94FA11E4
:100070004552524F520D0A0D0A000D0A53443A25BB
:10008000733E000D0A0053656E736F722032205A62
:100090006569743A2025692053656B756E64656ED9
:1000A00000436F6D70696C69657274206D697420AE
:1000B0004743432056657273696F6E20342E332E8A
:1000C000350D0A00436F6D70696C6965727420614B
:1000D0006D204D6172203134203230313120756D08
:1000E0002032313A30343A32310D0A000A0D537958
:1000F0007374656D2052656164790A0D001F1C1FC1
:100100001E1F1E1F1F1E1F1E1F4A616E4665624D69
:1001100061724170724D61794A756E4A756C4175B4
:10012000675365704F63744E6F7644656300253284
:1001300064202573202534640041424344454647EA
:1001400048494A4B4C4D4E4F5051525354555657B7
:1001500058595A6162636465666768696A6B6C6D59
:100160006E6F707172737475767778797A30313218
:10017000333435363738392B2F3D000400051A0645
:10018000FF071F080009000AFF0B19C100C00DC2BC
:1001900033CAEECB05C415C612E400E520E218E32D
:1001A000B1E015E13F7500FFFF000100140742FFB9
:1001B000FF696E6465782E68746D003C21444F437E
:1001C000545950452068746D6C205055424C494339
:1001D00020222D2F2F5733432F2F4454442048548F
:1001E0004D4C20342E3031205472616E7369746925
:1001F0006F6E616C2F2F454E222022687474703A06
:100200002F2F7777772E77332E6F72672F54522FD9
:1002100068746D6C342F6C6F6F73652E6474642218
:100220003E3C68746D6C3E3C686561643E3C6D6547
:10023000746120687474702D65717569763D224310
:100240006F6E74656E742D547970652220636F6EC5
:1002500074656E743D22746578742F68746D6C3BA0
:1002600020636861727365743D69736F2D3838352A
:10027000392D3122202F3E0D0A3C7469746C653E85
:10028000415652206D696E692057656273657276BA
:1002900065723C2F7469746C653E3C73637269705F
:1002A0007420747970653D22746578742F6A617664
:1002B00061736372697074223E0D0A66756E6374B1
:1002C000696F6E2073656E642870696E29207B0DDE
:1002D0000A766172204F5554203D20646F63756D1E
:1002E000656E742E637265617465456C656D656ECF
:1002F000742822494E50555422293B0D0A4F55541B
:100300002E74797065203D202268696464656E22D0
:100310003B0D0A4F55542E76616C7565203D20705B
:10032000696E3B0D0A4F55542E6E616D65203D2060
:10033000224F5554223B0D0A646F63756D656E74D0
:100340002E676574456C656D656E744279496428E5
:10035000226869646522292E617070656E64436845
:10036000696C64284F5554293B0D0A7661722053FD
:100370005542203D20646F63756D656E742E637207
:1003800065617465456C656D656E742822494E50D3
:10039000555422293B0D0A5355422E74797065201D
:1003A0003D202268696464656E223B0D0A53554204
:1003B0002E76616C7565203D202278223B0D0A5314
:1003C00055422E6E616D65203D2022535542223BE1
:1003D0000D0A646F63756D656E742E676574456C88
:1003E000656D656E74427949642822686964652286
:1003F000292E617070656E644368696C642853557A
:1004000042293B0D0A646F63756D656E742E6765D6
:1004100074456C656D656E7442794964282268691B
:10042000646522292E7375626D697428290D0A7D11
:100430003C2F7363726970743E0D0A3C7374796C5F
:100440006520747970653D22746578742F637373C9
:10045000223E0D0A3C212D2D0D0A424F4459207B8E
:10046000096D617267696E3A20302030203020308B
:100470003B206261636B67726F756E642D636F6C96
:100480006F723A2077686974653B20746578742DC3
:10049000616C69676E3A63656E7465723B207D506E
:1004A0002C204449562C2048312C204832207B6691
:1004B0006F6E742D66616D696C793A207665726431
:1004C000616E612C20617269616C3B20666F6E7495
:1004D0002D73697A653A20313170783B7D4831203F
:1004E0007B20206261636B67726F756E642D636F32
:1004F0006C6F723A20234343434346463B2070616E
:100500006464696E672D746F703A3570783B207043
:10051000616464696E672D626F74746F6D3A3570D3
:10052000783B666F6E742D73697A653A203230704D
:10053000783B20636F6C6F723A2023303034303652
:10054000303B20666F6E742D7765696768743A6218
:100550006F6C643B206C65747465722D737061639D
:10056000696E673A203870783B626F726465722DED
:10057000746F703A2032707820736F6C6964202336
:100580004545454545453B20626F726465722D6C5B
:100590006566743A2032707820736F6C696420232A
:1005A0004545454545453B626F726465722D626FF6
:1005B00074746F6D3A2032707820736F6C696420A8
:1005C000233030343036303B20626F726465722DD8
:1005D00072696768743A2032707820736F6C69644E
:1005E00020233030343036303B7D4832207B20664B
:1005F0006F6E742D73697A653A20313570783B20BF
:1006000070616464696E672D746F703A2032307067
:10061000783B2070616464696E672D6C6566743A1E
:10062000353070783B2070616464696E672D726943
:100630006768743A353070783B636F6C6F723A2339
:100640003030343038303B20666F6E742D776569FA
:100650006768743A626F6C643B20746578742D64CB
:1006600065636F726174696F6E3A756E6465726C02
:10067000696E653B626F726465722D746F703A20AB
:1006800031707820736F6C696420233030343038D7
:10069000303B7D502C2048312C204832207B6D612E
:1006A0007267696E3A20307078203070782035702B
:1006B00078203070783B7D0D0A2D2D3E0D0A3C2FA1
:1006C0007374796C653E3C2F686561643E0D0A3C2D
:1006D000626F64793E3C626C6F636B71756F7465B9
:1006E0003E3C626C6F636B71756F74653E3C626C0F
:1006F0006F636B71756F74653E3C64697620616CE5
:1007000069676E3D2263656E746572223E3C683196
:100710003E415652206D696E69205765627365725D
:100720007665723C2F68313E3C2F6469763E3C62B0
:10073000723E0D0A3C68323E476C2675756D6C3B07
:10074000636B77756E7363683C2F68323E3C425230
:100750003E0D0A3C703E57656E6E206475206469DC
:100760006573656E2054657874206C6573656E20C2
:100770006B616E6E73742C206861737420647520D5
:100780006573206765736368616666743A3C2F70B1
:100790003E3C42523E3C42523E0D0A3C703E3C6959
:1007A0006D67207372633D2272616B65742E676999
:1007B00066222077696474683D223930222068659A
:1007C000696768743D223932223E3C2F703E3C42BC
:1007D000523E0D0A3C703E44657220576562736557
:1007E00072766572206C2661756D6C3B756674203F
:1007F0002121212025574441592C2025444154458D
:10080000202D202554494D453C2F703E3C42523E00
:100810000D0A3C646976207374796C653D226469C5
:1008200073706C61793A206E6F6E653B223E3C6658
:100830006F726D206D6574686F643D22706F7374A4
:100840002220616374696F6E3D22222069643D221B
:1008500068696465223E3C2F666F726D3E3C2F6472
:1008600069763E0D0A3C6120687265663D226A61C8
:1008700076617363726970743A73656E6428274198
:100880002729223E3C696D67207372633D22255003
:100890004F525441302220626F726465723D2230A3
:1008A000223E3C2F613E20506F7274204130202840
:1008B000746F67676C65293C62723E0D0A3C61206B
:1008C000687265663D226A617661736372697074ED
:1008D0003A73656E642827422729223E3C696D677A
:1008E000207372633D2225504F52544131222062C1
:1008F0006F726465723D2230223E3C2F613E205073
:100900006F72742041313C62723E0D0A3C61206876
:100910007265663D226A6176617363726970743ACA
:1009200073656E642827432729223E3C696D672042
:100930007372633D2225504F525441322220626F20
:10094000726465723D2230223E3C2F613E20506F22
:1009500072742041323C62723E0D0A3C62723E3C2F
:1009600062723E3C703E3C696D67207372633D224B
:100970002550494E4437222077696474683D2231FE
:100980003722206865696768743D223137223E202E
:10099000506F727420442050696E20373C2F703E97
:1009A0000D0A3C703E3C696D67207372633D2225E1
:1009B00050494E4436222077696474683D223137AD
:1009C00022206865696768743D223137223E2050D5
:1009D0006F727420442050696E20363C2F703E0D9B
:1009E0000A3C703E3C696D67207372633D2225505E
:1009F000494E4435222077696474683D223137229C
:100A0000206865696768743D223137223E20506F47
:100A1000727420442050696E20353C2F703E0D0AC0
:100A20003C62723E3C62723E3C7461626C65206165
:100A30006C69676E3D2263656E746572222077690A
:100A40006474683D223530302220626F72646572B2
:100A50003D2230223E3C74723E0D0A3C7468207385
:100A6000636F70653D22636F6C223E3C7020616C49
:100A700069676E3D2263656E746572223E45696EDC
:100A800067616E673C2F703E3C2F74683E3C746813
:100A90002073636F70653D22636F6C223E3C702053
:100AA000616C69676E3D2263656E746572223E42B9
:100AB000616C6B656E3C2F703E3C2F74683E3C74DD
:100AC000682073636F70653D22636F6C223E3C70DB
:100AD00020616C69676E3D2263656E746572223EAB
:100AE00054656D70657261747572205B266465670C
:100AF0003B435D3C2F703E3C2F74683E3C2F74722C
:100B00003E3C2F7461626C653E3C42523E3C425218
:100B10003E203C7020616C69676E3D226C65667496
:100B2000223E3C42523E3C703E3C6120687265660B
:100B30003D225374617475732E68746D223E537434
:100B4000617475733C2F613E3C2F703E3C42523EB7
:100B50000D0A3C42523E3C42523E203C7020616CA9
:100B600069676E3D226C656674223E203C68323EA9
:100B70003C2F68323E3C42523E0D0A3C703E3C6186
:100B800020687265663D22687474703A2F2F7777FB
:100B9000772E756C7269636872616469672E64652B
:100BA000223E7777772E756C72696368726164692B
:100BB000672E64653C2F613E3C2F703E3C42523EA6
:100BC0003C7020616C69676E3D226C656674223EE4
:100BD000556C7269636820526164696720323030F5
:100BE00038203C62723E3C62723E3C2F703E0D0AE1
:100BF0003C2F6469763E3C2F626C6F636B71756F3E
:100C000074653E3C2F626C6F636B71756F74653EEB
:100C10003C2F626C6F636B71756F74653E3C2F6225
:100C20006F64793E3C2F68746D6C3E25454E4400E0
:100C30005374617475732E68746D003C21444F4386
:100C4000545950452068746D6C205055424C4943AE
:100C500020222D2F2F5733432F2F44544420485404
:100C60004D4C20342E3031205472616E736974699A
:100C70006F6E616C2F2F454E222022687474703A7B
:100C80002F2F7777772E77332E6F72672F54522F4F
:100C900068746D6C342F6C6F6F73652E647464228E
:100CA0003E3C68746D6C3E3C686561643E3C6D65BD
:100CB000746120687474702D65717569763D224386
:100CC0006F6E74656E742D547970652220636F6E3B
:100CD00074656E743D22746578742F68746D6C3B16
:100CE00020636861727365743D69736F2D383835A0
:100CF000392D3122202F3E3C7374796C6520747934
:100D000070653D22746578742F637373223E2E7371
:100D100074796C6531207B20666F6E742D73697AEF
:100D2000653A20736D616C6C3B207D2E7374796C19
:100D30006532207B20746578742D616C69676E3A2A
:100D4000206C6566743B207D3C2F7374796C653E26
:100D50003C2F686561643E3C626F64793E3C626C26
:100D60006F636B71756F74653E3C626C6F636B7122
:100D7000756F74653E3C626C6F636B71756F746503
:100D80003E0D0A3C64697620616C69676E3D2263A2
:100D9000656E746572223E3C68313E5374617475B1
:100DA0007320506167653C2F68313E3C2F64697643
:100DB0003E3C62723E3C6469763E436F6D70696C86
:100DC00069657274204D61722031342032303131C6
:100DD00020756D2032313A30343A3231206D6974E9
:100DE000204743432056657273696F6E20342E335B
:100DF0002E353C2F6469763E3C6469763E426573CD
:100E000075636865722073656974205374617274C8
:100E1000206465732057656273657276657273200E
:100E200028255641403039293C2F6469763E3C6282
:100E3000723E3C62723E3C62723E3C7020636C616A
:100E400073733D227374796C6532223E3C61206875
:100E50007265663D22696E6465782E68746D223E07
:100E6000486175707473656974653C2F613E3C2FF1
:100E7000703E3C62723E3C62723E3C62723E3C623C
:100E8000723E3C703E3C6120687265663D2268742B
:100E900074703A2F2F7777772E756C72696368724A
:100EA000616469672E6465223E7777772E756C7270
:100EB00069636872616469672E64653C62723E3C76
:100EC0002F613E3C62723E3C7370616E20636C61C8
:100ED00073733D227374796C6531223E556C72696F
:100EE000636820526164696720323030373C2F7369
:100EF00070616E3E3C2F626C6F636B71756F7465D1
:100F00003E3C2F626C6F636B71756F74653E3C2F56
:100F1000626C6F636B71756F74653E3C2F626F64BA
:100F2000793E3C2F68746D6C3E25454E44006C65DF
:100F3000646F6E2E67696600474946383961110053
:100F40001100A53F004D4D4D50504F545454416A2F
:100F5000445C5C5C3F73426262626A6B6B16A71E04
:100F60006F6F6F5F7A6019AD211CB2255694597B63
:100F70007B7B1ABD2323BA2C1BC3258383831CCA06
:100F8000267C8B7D1CD3268B8B8B2DCC361CD826B8
:100F90001DDF289091911DE1281EE22921E22C35C8
:100FA000DB3F2EE4389C9D9D3EE64740E649A5A5E3
:100FB000A547E75050E458A9A9A94EE856AEAEADF2
:100FC000AFB0AFB0B0B064E66BB4B4B5B8B8B96C9C
:100FD000EC7377ED7DBFC0BFC0C0C0C2C2C2A6DA8D
:100FE000A9C9C8C993F198CCCCCCD1D1D1A5F3A9CA
:100FF000D5D5D5DEDEDEE0E0E0C5F7C8E7E7E7EF10
:10100000EFEFFFFFFF21F904010A003F002C000071
:101010000000110011000006EDC09F50D8CBC9544C
:10102000A9966DC8FCF974371A8C65026940B4A69C
:101030006FA72B2D10E0C545E2680D7DBB1923E29B
:10104000097D3295C7A2918009753AC6C5F5729D92
:101050003E1B15130B09123F3D371E112B3538353A
:101060002E221D1B180F10062C39340B1E2F383C56
:10107000382F241D1B1B150B0616323008212E3568
:1010800038352E221CA4180804072A2C081F272EE6
:101090002F2E271FA41B19080402292608191F2216
:1010A00024221FC41B190802062D200B181B1DDE4D
:1010B000D31B150B0212361A100FE0D311100028A3
:1010C0003F20140B13EA1B130B030942340E0D0BC4
:1010D0000F18326CC880E1C1820200580C6991403F
:1010E00001840560102C601000C008263F62483063
:1010F0006080000101020024608171080B0B07046D
:10110000189080026310003B25454E446C65646F67
:1011100066662E67696600474946383961110011D5
:1011200000A53F004D4D4D50505052525254545412
:101130005756575A5A595D5D5D5E5D5D5E5E5E60F5
:101140006060626262636363646464656565696963
:10115000696E6E6E7070707777777878787A7A7A51
:101160007B7B7B7E7E7E7F7F7F8080808181818391
:1011700083838787878989898B8B8B8E8E8E9091CD
:10118000919191929393939797979A9A9A9C9C9CFA
:10119000A5A5A5A9A9A9ABABABACACACAEAEADAFA8
:1011A000AFAFAFB0AFB0B0B0B2B2B2B4B4B4B4B429
:1011B000B5B5B5B5B8B8B9BFC0BFBFC0C0C0C0C075
:1011C000C2C2C2C8C8C8C9C9C9CCCCCCD1D1D1D57A
:1011D000D5D5DDDDDDDEDFDEE0E0E0E7E7E7EFEF00
:1011E000EFFFFFFF21F904010A003F002C0000007F
:1011F00000110011000006ECC09F50D8CBD1562A38
:10120000D86DC8FCF976B85AEC551A7946B5A68F50
:10121000A713351006C442A3A1C0863EDECC31E937
:101220007C369509A41181C8843B9DA373629D46B9
:101230001B1616120C0F183F3D381F132734373476
:101240002720188210120A2E39360D1D2C373B37F5
:101250002C211982130A091C3431081F2634373413
:10126000272017821508070E2B2F061B23272C2754
:10127000231B8282060503292508151B2021201B1C
:10128000C3161508040C30230B1316181918D116A1
:10129000130A0219371E1710DFD1101500283F233B
:1012A0001A0D12E916120A010F423514110C10130F
:1012B000152C549800414101002D86C080F04082D9
:1012C0000204061028781000008926333028486070
:1012D000A0000101001EB46832C4050707031864AA
:1012E00040D12408003B25454E4462616C6B652E5D
:1012F0006769660047494638396102000A00A20062
:1013000000A2A5ED848FE5667CDD4960D62144DA34
:10131000FE010200000000000021F9040514000590
:10132000002C0000000002000A0000030A483423D9
:10133000120148001D5309003B25454E4472616B64
:1013400065742E676966004749463839610F000F9A
:1013500000B30D00454545FFEA00000000FFFFFF18
:10136000FFCE00FFC900FFB400FE9D00FFFE93FF0B
:10137000FD13FFFFC7FFFFEBFFE5000000000000CB
:101380000000000021F9040100000D002C00000005
:10139000000F000F00000459B049096A9DB8D5A597
:1013A000102217067049129CC4014C40679E70BA07
:1013B0006A8829C077006ACA9B07B9820A80F8C187
:1013C00070864A51C06C3A9300DB604A1D080A508F
:1013D00002B04ABDAA345A01F7BA0313184EF29765
:1013E000422014DE6F59A662A81B861996653689BD
:1013F00000003B25454E44B101BB01300C3B0C3D88
:10140000134713EA12F4122E0F380F0C11171100A4
:10141000000000485454502F312E302032303020FC
:10142000446F63756D656E7420666F6C6C6F777357
:101430000D0A5365727665723A204156525F536DBC
:10144000616C6C5F5765627365727665720D0A43F5
:101450006F6E74656E742D547970653A207465787A
:10146000742F68746D6C0D0A0D0A00485454502F87
:10147000312E302032303020446F63756D656E74CC
:1014800020666F6C6C6F77730D0A536572766572A8
:101490003A204156525F536D616C6C5F57656273C1
:1014A00065727665720D0A436F6E74656E742D54A5
:1014B0007970653A20696D6167652F6A70670D0AFA
:1014C0000D0A00485454502F312E30203430312032
:1014D000556E617574686F72697A65640D0A53653B
:1014E000727665723A204156525F536D616C6C5F43
:1014F0005765627365727665720D0A5757572D41AD
:10150000757468656E7469636174653A20426173CD
:101510006963207265616C6D3D224E656564506142
:101520007373776F7264220D0A436F6E74656E7405
:101530002D547970653A20746578742F68746D6CD9
:101540000D0A0D0A00485454502F312E31203230EC
:1015500030204F4B0D0A5365727665723A20415622
:10156000525F536D616C6C5F57656273657276652F
:10157000720D0A436F6E74656E742D446973706FDB
:10158000736974696F6E3A206174746163686D6524
:101590006E743B66696C656E616D653D4461746136
:1015A0006C6F672E6373760D0A436F6E6E6563749E
:1015B000696F6E3A20636C6F73650D0A436F6E74CA
:1015C000656E742D547970653A2066696C650D0AF4
:1015D0000D0A0034303120556E617574686F726980
:1015E0007A656425454E440025454E44000D0A00A9
:1015F0002E676966002E6A7067002E68746D00633E
:1016000073760068746D00494E4445582E48544D19
:1016100000504F53540053746172742054656C6EC3
:101620006574205365727665723A0D0A00D9000A16
:10163000FA000000000001040000000000000000AB
:10164000000000000000000000000000000000009A
:101650000000000000C7D6AC720800000025454E0F
:1016600044474554202F676C6F62616C77656174E5
:101670006865722E61736D782F4765745765617464
:101680006865723F436974794E616D653D50616470
:101690006572626F726E26436F756E7472794E61F9
:1016A0006D653D4765726D616E7920485454502FC9
:1016B000312E310D0A486F73743A207777772E7781
:1016C000656273657276696365782E6E65740D0A5E
:1016D0004B6565702D416C6976653A203330300D6D
:1016E0000A436F6E6E656374696F6E3A204B656571
:1016F000702D416C6976650D0A0D0A000D0A0D0A00
:101700000D0A446174656E20416E666F7264657285
:101710006E0D0A005443502045696E747261672053
:10172000676566756E64656E2028485454505F4343
:101730004C49454E5429210D0A0054435020456917
:101740006E74726167206E69636874206765667580
:101750006E64656E2028485454505F434C49454E92
:101760005429210D0A00415250205265717565734C
:10177000740A0D0025630048454C4F204554485FCE
:101780004D33325F45580D0A0041555448204C4FA7
:1017900047494E0D0A00525345540D0A0044415426
:1017A000410D0A002E0D0A00515549540D0A00231F
:1017B00023002323004D58000D0A00232300524329
:1017C000505420544F3A000D0A004652004D4149F2
:1017D0004C2046524F4D3A000D0A005057000D0A5A
:1017E000005553000D0A2A2A204D5820656D706659
:1017F000616E67656E3A202573000D0A2A2A205013
:10180000545220656D7066616E67656E3A2025736F
:10181000000D0A2A2A20534F4120656D7066616EC3
:1018200067656E3A202573000D0A2A2A20434E412F
:101830004D4520656D7066616E67656E3A20257353
:10184000000D0A2A2A204E5320656D7066616E676E
:10185000656E3A202573000D0A2A2A20444E532033
:10186000495020656D7066616E67656E3A20256926
:101870002E25692E25692E2569000D0A2A2A204465
:101880004E53205459504520256920434C41535311
:101890002025692052444C656E202569000D0A2AD6
:1018A0002A20444E533A20256920525273000D0AD3
:1018B0002A2A20444E532066616C73636865204970
:1018C000443A20307825782030782578002A2A205C
:1018D000444E5320444154412047455421202A2A54
:1018E0000D0A000D0A4B65696E656E20444E53204B
:1018F00053657276657220676566756E64656E21E4
:1019000021000D0A2A2A20444E5320526571756524
:10191000737420676573656E64657421202A2A00DC
:101920000D0A444E5320416E66726167653A202568
:10193000730025692E25692E25692E25692E696E6D
:101940002D616464722E6172706100536F6E4D6F11
:101950006E4469654D6974446F6E46726553616D7E
:10196000006C65646F6E2E676966006C65646F66F7
:10197000662E6769660050494E006C65646F666646
:101980002E676966006C65646F6E2E67696600502D
:101990004F52540057444159005553444154450057
:1019A00025322E32642E25322E32642E25346400E8
:1019B000444154450025322E32643A25322E326499
:1019C0003A25322E32640054494D45005155495450
:1019D0000045584954005245534554004152500067
:1019E000544350004950004E455400524F55544501
:1019F00052004E5450004D4143005645520053563C
:101A00000054494D45004E5450520050494E470035
:101A1000444E5300444E535100444E5352004449E7
:101A200052004449534B0043415400505744004333
:101A30005744004344004344555000555345520019
:101A400050415353004E4F4F500054595045005091
:101A5000415356004C49535400524554520053547C
:101A60004F5200524D44004D4B440044454C4500FC
:101A700053595354006D61696C0048454C50003F08
:101A800000CC19B638D119B638D619B938DC1910C6
:101A90003DE019143CE4197846E7198045EB190438
:101AA00045F619113AFA19C939FE19BF38011A3524
:101AB000390B1A9743F219FC45061A7143101A7B29
:101AC00044141A5543191AF4431E1AC341221ACE5C
:101AD0003A271A9C412B1A04392F1A963F331A962B
:101AE0003F361AFA3E3B1A753E401A6B3E451A5471
:101AF0003E4A1AB63E4F1AC238541A9F3E591A022D
:101B0000415E1A65416B1A2B41671AE440631A2B38
:101B100041701AE33E751A60437A1ABA3B7F1ABACB
:101B20003B00000000524553455420202D20726593
:101B30007365742074686520415652202D20436FD0
:101B40006E74726F6C6C65720D0A415250202020C9
:101B5000202D206C697374207468652041525020D8
:101B60007461626C650D0A544350202020202D20A2
:101B70006C6973742074686520746370207461628A
:101B80006C650D0A495020202020202D206C69739F
:101B9000742F6368616E67652069700D0A4E455445
:101BA000202020202D206C6973742F6368616E677C
:101BB00065206E65746D61736B0D0A524F55544507
:101BC00052202D206C6973742F6368616E676520E5
:101BD000726F757465722069700D0A4E5450202022
:101BE00020202D206C6973742F6368616E676520F7
:101BF0004E54500D0A4E5450522020202D204E5449
:101C00005020526566726573680D0A4D414320206D
:101C100020202D206C697374204D41432D61646434
:101C2000726573730D0A564552202020202D206CBA
:101C300069737420656E632076657273696F6E20B8
:101C40006E756D6265720D0A535620202020202D7E
:101C500020736574207661726961626C650D0A504B
:101C6000494E472020202D2073656E642050696EF8
:101C7000670D0A4D41494C2020202D2073656E646C
:101C800020452D4D61696C0D0A6469736B2020201D
:101C90002D2053442D4B617274656E696E666F72B0
:101CA0006D6174696F6E0D0A646972202020202DA9
:101CB000204469726563746F727920616E7A656918
:101CC00067656E0D0A636174202020202D20446119
:101CD00074656920616E7A656967656E0D0A637760
:101CE00064202020202D206368616E676520776F57
:101CF000726B696E67206469726563746F72790DC7
:101D00000A636420202020202D20776965206377D6
:101D1000640D0A54494D452020202D20676574200C
:101D200074696D650D0A48454C502020202D2070A7
:101D300072696E742048656C70746578740D0A3F22
:101D40002020202020202D207769652048454C50F8
:101D50000D0A000D0A666F726D61743A20202569C4
:101D6000000D0A77722E70722E3A202025692F25D9
:101D700069000D0A636F70793A20202020256900E0
:101D80000D0A73697A653A20202020256C000D0A1F
:101D9000646174653A2020202025692F2569000D93
:101DA0000A73657269616C3A2020256C000D0A7215
:101DB00065763A20202020202569000D0A70726F78
:101DC000643A202020202573000D0A6F656D3A20AB
:101DD000202020202573000D0A6D616E75663A2063
:101DE00030782578000D0A4469736B206B616E6E44
:101DF000206E696368742067656C6573656E207713
:101E0000657264656E2E0025630032323720456EA0
:101E1000746572696E672050617373697665204DD1
:101E20006F6465202825692C25692C25692C256976
:101E30002C382C3532290D0A003535302052657189
:101E400075657374656420616374696F6E206E6F6D
:101E5000742074616B656E2E0D0A00353330204E90
:101E60006F74206C6F6767656420696E2E0D0A00C1
:101E7000353032206E6F7420696D706C656D656EE3
:101E80007465642E0D0A00323530206F6B2E0D0AFA
:101E90000032303020436F6D6D616E64206F6B2EA9
:101EA0000D0A00313530204F70656E696E67204134
:101EB00053434949206D6F646520646174612063F8
:101EC0006F6E6E656374696F6E2E0D0A003135306A
:101ED000204F70656E696E672042494E415259200D
:101EE0006D6F6465206461746120636F6E6E6563FD
:101EF00074696F6E2E0D0A00323030205573696E92
:101F000067204153434949206D6F646520746F20F9
:101F10007472616E7366657220646174612E0D0A5D
:101F200000323030205573696E672042494E41526D
:101F300059206D6F646520746F207472616E7366D2
:101F4000657220646174612E0D0A003235302044C0
:101F500069726563746F7279206368616E67656426
:101F600020746F2025730D0A002F00323530204475
:101F700069726563746F7279206368616E67656406
:101F800020746F2025730D0A002F002F0032353783
:101F9000202225732220697320796F757220637562
:101FA0007272656E74206C6F636174696F6E0D0A76
:101FB000000D0A44454C453A202573206578697325
:101FC000742E0025730025396C2000202020203C31
:101FD0004449523E20000D0A2532692E2532692ED1
:101FE0002569202532693A253269200025692D2589
:101FF000692D25692025693A25693A256920253802
:10200000732025730D0A00256C64003C4449523E40
:10201000000A0D53442D4B617274653A003231351C
:1020200020444F530D0A00444E532049503A202576
:1020300031692E2531692E2531692E2531690D0A28
:1020400000323530206F6B2E20444E532049503AD9
:102050002025692E25692E25692E25690D0A000A7D
:102060000D54494D453A202532693A2532693A25C1
:1020700032690D0A00323530206F6B2E2054696DA5
:10208000653A202532693A2532693A2532690D0AC6
:10209000002054696D653A2534690D0A00204445D5
:1020A00053545F504F52543A2534690020535243E1
:1020B0005F504F52543A253469002E253369002E63
:1020C000253369002E25336900202049503A2533F5
:1020D000690025326900202054696D653A2534690C
:1020E0000D0A002E253369002E253369002E253375
:1020F0006900202049503A253369002E25327800A6
:102100002E253278002E253278002E253278002EAA
:102110002532780025326920204D41433A25327816
:1021200000454E4332384A36302D56657273696F1A
:102130006E3A202531780D0A00323530206F6B2E33
:1021400020454E4332384A36302D56657273696FDA
:102150006E3A202531780D0A004D79204D41433AE1
:10216000202532783A2532783A2532783A25327865
:102170003A2532783A2532780D0A00323530206F10
:102180006B2E204D79204D41433A202532783A2557
:1021900032783A2532783A2532783A2532783A251B
:1021A00032780D0A00526F757465722049503A20DA
:1021B0002531692E2531692E2531692E2531690D8C
:1021C0000A00323530206F6B2E20526F75746572A5
:1021D0002049503A2025692E25692E25692E25692A
:1021E0000D0A004E45544D41534B3A202531692E7E
:1021F0002531692E2531692E2531690D0A004E459C
:10220000544D41534B3A2025692E25692E25692EC0
:1022100025690D0A004E54505F5365727665723A17
:10222000202531692E2531692E2531692E25316908
:102230000D0A004E54505F5365727665723A202540
:10224000692E25692E25692E25690D0A004D7920F4
:1022500049503A202531692E2531692E2531692EC4
:102260002531690D0A004D792049503A2025692E03
:1022700025692E25692E25690D0A000D0A003232C6
:102280003020536572766572206265726569740DDF
:102290000A00323236205472616E736665722063B2
:1022A0006F6D706C6574652E20436C6F73696E671B
:1022B000206461746120636F6E6E656374696F6E14
:1022C0000D0A006279652C20627965202E2E2E0D74
:1022D0000A00353032206E6F7420696D706C656D48
:1022E000656E7465642E0D0A000D0A002534693B85
:1022F0002534693B2534693B2534693B0025326927
:102300003B2532693A2532693A2532693B20533BF5
:102310002563256325633B2532693B25693B256998
:102320003B25693B004C6F6720676573746172746D
:102330006574202D2D2D2D2D2D2D2D0D0A006C6752
:1023400025322E326925322E326925322E32692EFF
:10235000637376006E65753B2563256325633B25B6
:1023600032693B0D0A002532693B2532693A253234
:10237000693A2532693B616C743B256325632563AB
:102380003B2532693B0001030406090B0C0E204378
:102390005243204F2E4B2E200020435243204641D3
:1023A000494C200028203F202900283138422900AC
:1023B0002831385329002578200011241FBECFEF83
:1023C000D0E1DEBFCDBF11E0A0E0B1E0E8E7F4EE80
:1023D00002C005900D92AA3DB107D9F71DE0AAED04
:1023E000B1E001C01D92A93DB107E1F70E94FC11C7
:1023F0000C943A720C9400002F923F924F925F928D
:102400006F927F928F929F92AF92BF92CF92DF9204
:10241000EF92FF920F931F93DF93CF9300D0CDB72E
:10242000DEB787E081B917B81AB860E076E980E0D6
:1024300090E00E94B41384E191E09093D40D8093D6
:10244000D30D00D08CEE90E0EDB7FEB79283818380
:102450000E94F66E84EC90E0EDB7FEB79283818324
:102460000E94F66E81EA90E0EDB7FEB79283818319
:102470000E94F66E80E090E0A0E0B0E00F900F9038
:1024800000000196A11DB11D8034F2E49F07FFE01A
:10249000AF07F0E0BF07A1F70E94F0200E94DB1F0A
:1024A0000E94AC2C0E940D2EEA9A78940E94E3368A
:1024B0000E947C2F0E9420340E947B490E94A34DE1
:1024C0000E946867222423948E010F5F1F4F66E8E5
:1024D000462E60E0562E53E8652E50E0752E40E4FF
:1024E000342E30E7832E30E0932E2AE7A22E20E010
:1024F000B22E98E7C92E91E0D92E80E2E82E8CE129
:10250000F82E80913C06882391F10E9479228091D7
:102510003C06815080933C068091450B82608093FD
:10252000450B80914806882351F0809148068150E0
:102530008093480680914806882309F41298809178
:1025400049068823A1F0809149068150809349066D
:1025500080914906882359F480914A0690914B0650
:10256000892B29F0E0914A06F0914B06099580915C
:102570004D06882369F010924D0680914E06909189
:102580004F06892B29F0E0914E06F0914F060995F0
:102590000E94674D80914006882331F00E944C666E
:1025A00020923D061092400680913D06882331F02E
:1025B00080E090E00E94AA6610923D0680913F065E
:1025C000882341F0C8010E941B22C8010E949A651D
:1025D00010923F0680914106882321F00E94F76403
:1025E0001092410680914406882309F46FC08091BF
:1025F000440680FF0DC08091460680FD09C0809191
:10260000EF0B9091F00B01969093F00B8093EF0BF2
:102610008091440681FF3CC08091460681FD0DC03B
:102620008091770C9091780CA091790CB0917A0CF4
:102630009093F20B8093F10B2BC02091770C30918B
:10264000780C4091790C50917A0C8091F10B90911B
:10265000F20B00D000D000D0EDB7FEB7528241821D
:10266000A0E0B0E0281B390B4A0B5B0B23833483BB
:10267000458356830E94F66E1092F20B1092F10B76
:102680008DB79EB706960FB6F8949EBF0FBE8DBF4E
:102690008091440686FF0DC08091460681FD09C0E9
:1026A0008091F30B9091F40B01969093F40B80932F
:1026B000F30B8091440687FF07C08091460687FD93
:1026C00003C081E00E94EC31109244060E946F1E0C
:1026D0008091F50B80FF2FC000D0EDB7FEB772825E
:1026E00061820E94F66E0F900F9086EF9BE00E9431
:1026F000F446882379F000D000D0EDB7FEB7B2825F
:10270000A182D482C3820E94F66E0F900F900F9028
:102710000F9009C000D0EDB7FEB7928281820E946F
:10272000F66E0F900F908BB183258BB98091F50BCE
:102730008E7F8093F50B80914A0B90914B0B892BE8
:1027400031F4F0924B0BE0924A0B0E94002F8091E3
:102750004306882331F0809143060E94EC31809338
:1027600043060E94B92CCDCE9B01AC0188E9809331
:10277000C10084E0220F331F441F551F8A95D1F7F3
:1027800060E070E081EE90E00E945C6B215020934D
:10279000C4008091F50B8B7F8093F50B0895982FE3
:1027A0008091F50B82FD06C08091C00085FFFCCFB3
:1027B0009093C60080E090E008958091DA0188232C
:1027C00019F420E030E004C08091F60B282F30E0AF
:1027D000C90108951F920F920FB60F9211242F93E3
:1027E0003F938F939F93EF93FF932091F50B22FDDF
:1027F00040C09091C6008091C00085FFFCCF9093AF
:10280000C60020FF04C08091F50B826020C0983084
:1028100049F48091DA01882309F448C08091DA01F3
:10282000815024C09D30B1F4E091DA01F0E0EB502A
:10283000F44F80818C3571F0E091DA01F0E0EA50DC
:10284000F44F10821092DA018091F50B8160809331
:10285000F50B2CC08091DA01813340F58091DA01CB
:10286000E82FF0E0EA50F44F90838F5F8093DA0115
:102870001DC020912201309123018091240190916B
:10288000250101972817390789F08091C600F901C1
:102890008193F0932301E0932201E752FC4031F44D
:1028A000205330403093230120932201FF91EF9178
:1028B0009F918F913F912F910F900FBE0F901F907E
:1028C0001895282F892F922F0895EF92FF920F933A
:1028D0001F93162F0027FF24EE24292F3327442788
:1028E0005527E20EF31E041F151F9B01AC0120703B
:1028F00030705070232F342F452F5527E20EF31ED2
:10290000041F151F607080709070982F872F762F8E
:102910006627E60EF71E081F191FB701C8011F9191
:102920000F91FF90EF90089540E050E09A01220F40
:10293000331F240F351FD901AA0FBB1FAA0FBB1FBE
:10294000A95FB44F1A968D919C911B97892B09F51D
:102950001C9211961C921197F901EE0FFF1FEE0FBA
:10296000FF1FE75FF44F108213961C921397F90133
:10297000EE0FFF1FEE0FFF1FE55FF44F108215965D
:102980001C92159716961D921D921D921C921997D6
:1029900009C01A968D919C911B9701971B969C9349
:1029A0008E931A974F5F5F4F4530510509F0BECFA8
:1029B0000895AC0120E001C02F5FA22FB0E0FD011F
:1029C000EE0FFF1FEE0FFF1FE552FE4F808191813A
:1029D000892B91F7263050F451834083AA0FBB1FF7
:1029E000AA0FBB1FA352BE4F6D937C93089520E0A6
:1029F00001C02F5FA22FB0E0FD01EE0FFF1FEE0F11
:102A0000FF1FE552FE4F0190F081E02D309719F045
:102A1000E817F90771F7263040F4AA0FBB1FAA0F79
:102A2000BB1FA552BE4F6D937C930895AC0120E06F
:102A300001C02F5FA22FB0E0FD01EE0FFF1FEE0FD0
:102A4000FF1FED50FE4F80819181892B91F7263039
:102A500050F451834083AA0FBB1FAA0FBB1FAB507A
:102A6000BE4F6D937C9308959C01E3EFF1E080816C
:102A700091818217930711F411821082349682E0BB
:102A8000EB30F807A1F708951F920F920FB60F923F
:102A900011248F938091450B81608093450B109298
:102AA0000D0210920E0210920F0210921002EA987C
:102AB0008F910F900FBE0F901F9018950F931F933B
:102AC000CF93DF93009162061091630660E070E09F
:102AD00086E008301807C1F4FB01EE0FFF1FE60F78
:102AE000F71FEE0FFF1FEE0FFF1FE95FF44F268168
:102AF0003781408551858091720690917306A0912F
:102B00007406B09175061AC00830110509F5FB016D
:102B1000EE0FFF1FE60FF71FEE0FFF1FEE0FFF1F59
:102B2000E95FF44F26813781408551858091700699
:102B300090917106A0917206B0917306281739071B
:102B40004A075B0729F484E690E09387828788C070
:102B50006F5F7F4F6530710509F0BACF20E030E03C
:102B6000A901440F551F420F531FEA01CC0FDD1F6F
:102B7000CC0FDD1FC95FD44FBE016A5F7F4F8E81CE
:102B80009F81A885B9850097A105B10509F062C0AC
:102B9000E6E008301E0749F580915C068883809145
:102BA0005D06898380915E06FA01EE0FFF1FEE0F2E
:102BB000FF1FE75FF44F808380915F068B838091D6
:102BC0006006FA01EE0FFF1FEE0FFF1FE55FF44FE7
:102BD0008083809161068D83809172069091730647
:102BE000A0917406B09175062BC008301105C1F58F
:102BF00080915C06888380915D06898380915E0662
:102C0000FA01EE0FFF1FEE0FFF1FE75FF44F808307
:102C100080915F068B8380916006FA01EE0FFF1FA3
:102C2000EE0FFF1FE55FF44F8083809161068D8377
:102C30008091700690917106A0917206B091730612
:102C4000FB0180839183A283B38384E690E09B871A
:102C50008A8706C02F5F3F4F2530310509F080CFAE
:102C6000DF91CF911F910F9108951F93AB01BC018C
:102C700020E030E0122FF901EE0FFF1FE20FF31FEB
:102C8000EE0FFF1FEE0FFF1FE95FF44F8681978164
:102C9000A085B18584179507A607B70731F02F5F88
:102CA0003F4F2530310531F715E0812F1F910895F1
:102CB000FF920F931F93182F092F20E030E0F22E80
:102CC000F901EE0FFF1FE20FF31FEE0FFF1FEE0FD4
:102CD000FF1FE95FF44F86819781A085B185841736
:102CE0009507A607B70731F02F5F3F4F2530310515
:102CF00031F726C0212F302FC901DC0140E050E020
:102D00008F2D90E09C01220F331F280F391F220FB7
:102D1000331F220F331FF901E40FF51FE95FF44F52
:102D200080818C93FA01E458F34F808116968C933E
:102D300016974F5F5F4F11964630510561F70FC0F0
:102D4000ACE7BCE0812F902F9C01F9019FEF9083AD
:102D50008D91868331968CE0A238B807C1F71F9118
:102D60000F91FF900895EF92FF920F931F93CF93CF
:102D7000DF937C018B01EC0111C08881998122963F
:102D8000F82FE0E0DF01A90FB11DCD01A0E0B0E018
:102D9000280F391F4A1F5B1F625070406230710557
:102DA00060F7F801EE7FEE0DFF1D00FF08C0908177
:102DB00080E0A0E0B0E0280F391F4A1F5B1FCA0166
:102DC000AA27BB2740705070820F931FA41FB51F06
:102DD0009D0144275527A070B070280F391F4A1F46
:102DE0005B1F20953095C901DF91CF911F910F9105
:102DF000FF90EF900895AF92BF92CF92DF92EF9243
:102E0000FF920F931F937C015A016B018C01025FAB
:102E10001F4F0E94581688E090E0F701958784873D
:102E200020910B0230910C022F5F3F4F30930C0228
:102E300020930B0280E490E0F8019783868380E87A
:102E400080873483258385E4F7018687F801118222
:102E5000A08AB18AC28AD38A8091460B9091470B8F
:102E6000A091480BB091490B84879587A687B787B7
:102E700013861286C80164E170E020E030E040E093
:102E800050E00E94B316F801928783871F910F913B
:102E9000FF90EF90DF90CF90BF90AF900895AF92EA
:102EA000BF92CF92DF92EF92FF920F931F93CF9337
:102EB000DF938C01EC01A296BC01625F7F4FDB01C6
:102EC0001C96CD90DD90ED90FC901F9740E050E077
:102ED000E6E1AE2EB12C4A9DF0014B9DF00D5A9DBE
:102EE000F00D1124EC5AF44F80819181A281B381BD
:102EF0008C159D05AE05BF0509F056C024813581AE
:102F0000888199812817390709F04EC088859985ED
:102F1000AA85BB8580879187A287B3878C819D8195
:102F2000AE81BF8184879587A687B7878D85808B83
:102F300083898F3F11F083E0838BFB01F280E38074
:102F40008CEE9FEFE80EF91E8C8590E0807F9070EC
:102F50009595879595958795E81AF90A00E010E010
:102F600086E190E0489F6001499FD00C589FD00CAB
:102F70001124A4E5BBE0CA0EDB1EF601648575854D
:102F8000868597850E946514E60EF71E081F191F97
:102F9000C801B7010E946514D6011C966D937D93FC
:102FA0008D939C931F974FC04F5F5F4F45305105E6
:102FB00009F091CF20E030E066E170E0269FA001AB
:102FC000279F500D369F500D1124FA01EC5AF44FF3
:102FD00080819181A281B3810097A105B10569F536
:102FE000C082D182E282F382D80192968D919C9127
:102FF0009397958384838A819B8197838683888531
:103000009985AA85BB8580879187A287B3878C81A4
:103010009D81AE81BF8184879587A687B7878D857F
:10302000808B128A118A83E0838B148AFA01E75914
:10303000F44F80818E7F808306C02F5F3F4F253005
:10304000310509F0BBCFDF91CF911F910F91FF9018
:10305000EF90DF90CF90BF90AF900895EF92FF92E6
:103060000F931F93CF93DF937B018C0120E030E01F
:10307000C6E1D0E0622F2C9FF0012D9FF00D3C9F08
:10308000F00D1124EC5AF44F80819181A281B3811B
:103090008E159F05A007B10729F4848195818417B7
:1030A000950731F02F5F3F4F2530310519F765E067
:1030B000862FDF91CF911F910F91FF90EF90089590
:1030C00020E001C02F5FA22FB0E0FD01EE0FFF1F37
:1030D000EE0FFF1FED50FE4F0190F081E02D309775
:1030E00089F090917A0680917B06E817F90751F7ED
:1030F000AA0FBB1FAA0FBB1FAB50BE4FED91FC9197
:1031000080E009950895CF93DF93582FCBEDD1E060
:10311000E0E0F0E0282F30E086E190E0289FD00149
:10312000299FB00D389FB00D1124A65AB44F8D9130
:103130009C911197382F292F8881998182179307A5
:1031400031F031962496E730F10589F70DC0E6306D
:1031500058F4EE0FFF1FEE0FFF1FE352FE4F0190DA
:10316000F081E02D852F0995DF91CF91089586306C
:1031700038F5282F30E086E190E0289FD001299F84
:10318000B00D389FB00D1124FD01EC5AF44F1082A0
:10319000118212821382158214821782168210867F
:1031A0001186128613861486158616861786108A4F
:1031B000128A118A138AA759B44F8C918E7F8C93EF
:1031C0000895CF92DF92EF92FF920F931F93CF93C8
:1031D000DF93EC0134E6E32E36E0F32EC62EDD2439
:1031E00086E190E0C89E8001C99E100DD89E100D0A
:1031F00011240C5A144FF801868197819093790617
:10320000809378068481958190937B0680937A06DB
:1032100010928B0610928A0684E09CE490938706B5
:103220008093860680E5809384066485758586850F
:1032300097850E9465149B01AC01F80180898093F9
:103240008506808981FF14C02F5F3F4F4F4F5F4F2E
:1032500082E080938C0684E080938D0680938E06B6
:103260008CE480938F0680E680938406C4E0D0E0EF
:10327000CA01B9010E9465146093800670938106AB
:10328000809382069093830686E190E0C89E800139
:10329000C99E100DD89E100D11240C5A144FF80120
:1032A00080859185A285B38580937C0690937D0669
:1032B000A0937E06B0937F06CE018896F701928395
:1032C000838386E08187F801408151816281738127
:1032D00086E596E00E94FB161092890610928806F9
:1032E0007091660660916706685F7F4F8091640603
:1032F00090E08F709070880F991F880F991F681B3E
:10330000790B625070409B0140E050E06E5F7F4F50
:1033100080E796E00E94B316909388068093890612
:10332000CE01C69666E576E00E947224F801108A06
:10333000DF91CF911F910F91FF90EF90DF90CF9091
:1033400008958F929F92AF92BF92DF92EF92FF9279
:103350000F931F93CF93DF937B018C015A01490197
:10336000EA9820E030E046E150E0D22E249FE001D0
:10337000259FD00D349FD00D1124CC5AD44F888175
:103380009981AA81BB810097A105B105F1F4822F33
:103390000E94B718E882F9820A831B83BD82AC823F
:1033A0009F828E8282ED94E0A0E0B0E088879987CA
:1033B000AA87BB8789E299E0A0E0B0E08C879D876F
:1033C000AE87BF878EE18B8B06C0D3942F5F3F4FB4
:1033D0002530310551F62D2D30E086E190E0289F13
:1033E000F001299FF00D389FF00D1124EC5AF44F95
:1033F00082E0808B80E090E06D2D0E94E118EA9AD7
:10340000DF91CF911F910F91FF90EF90DF90BF90D0
:10341000AF909F908F900895682F282F30E086E11D
:1034200090E0289FF001299FF00D389FF00D1124A6
:10343000EC5AF44F8FEF9FEF928B818B81E1808B61
:1034400080E090E00E94E1180895AF92BF92DF9271
:10345000EF92FF920F931F93CF93DF9320E001C071
:103460002F5F022F10E0F801EE0FFF1FEE0FFF1F7E
:10347000E552FE4F0190F081E02D309709F4CFC165
:1034800090917A0680917B06E817F90749F74091F9
:103490008506242F30E0C90182719070429709F0AF
:1034A00065C086E596E00E944F17409170065091E6
:1034B0007106609172067091730600917806109102
:1034C0007906C0E0D0E0A6E1EA2EF12C2C2FCE9DAB
:1034D000F001CF9DF00DDE9DF00D1124EC5AF44F5C
:1034E00080819181A281B38184179507A607B707D0
:1034F00029F4848195818017910729F02196C530A0
:10350000D10521F78CC130E086E190E0289F800151
:10351000299F100D389F100D11240C5A144F8EE165
:10352000D80153968C9353971C966D917D918D91F4
:103530009C911F970E9465146F5F7F4F8F4F9F4F25
:103540000E946514F801648775878687978780E1F4
:10355000808B80E090E06C2F0E94E11881E090E089
:10356000D80152969C938E93519759C1423009F0DD
:1035700046C086E596E00E944F1720917006309174
:1035800071064091720650917306C0917806D091F1
:10359000790660E070E0F6E1EF2EF12C6E9DF0010F
:1035A0006F9DF00D7E9DF00D1124EC5AF44F80813B
:1035B0009181A281B38182179307A407B50729F4EB
:1035C000848195818C179D0731F06F5F7F4F653047
:1035D000710521F724C1262F30E086E190E0289F75
:1035E000F001299FF00D389FF00D1124EC5AF44F93
:1035F00082E1808B80E090E00E94E11810C1409150
:103600007006509171066091720670917306E09099
:103610007806F0907906C0E0D0E0E6E1AE2EB12C5D
:10362000DC2ECA9DF001CB9DF00DDA9DF00D11242A
:10363000EC5AF44F80819181A281B3818417950760
:10364000A607B70729F4848195818E159F0529F077
:103650002196C530D10521F7DDC086E596E00E94B0
:103660004F174C2F50E086E190E0489FF001499FB2
:10367000F00D589FF00D1124EC5AF44F808980FF13
:103680002BC02DC086E596E00E944F176091CE0BAF
:103690007091CF0B8091D00B9091D10B0E9465144B
:1036A0006F5F7F4F8F4F9F4F0E9465146093CE0BCB
:1036B0007093CF0B8093D00B9093D10B8091D20B52
:1036C00080FF08C080E18093D20B80E090E065E04D
:1036D0000E94E11885E034C0808982FF34C086E111
:1036E00090E0489FE001499FD00D589FD00D1124D4
:1036F000CC5AD44F6C857D858E859F850E9465143C
:103700006F5F7F4F8F4F9F4F0E9465146C877D873F
:103710008E879F87888980FF12C0000F111F000FBE
:10372000111F03521E4FD801ED91FC918D2D09956B
:1037300081E1888B80E090E06D2D0E94E1188D2D55
:103740000E94B7186CC0808983FF15C0808984FFF0
:1037500012C0818992890196928B818B88E1808B3E
:10376000000F111F000F111F03521E4FD801ED91C2
:10377000FC918C2F4DC086E190E0489F9001499FBD
:10378000300D589F300D1124F901EC5AF44F808907
:1037900084FF0AC0F901E759F44F808180FD04C01D
:1037A0008081816080833BC086E190E0489FF0018A
:1037B000499FF00D589FF00D1124DF01AC5AB44F12
:1037C00050968C91509784FF2AC0E759F44F80811E
:1037D00080FF25C051968D919C9152978F5F9F4F8E
:1037E000F1F080E150968C93509751968D919C9179
:1037F0005297019652969C938E935197000F111FEA
:10380000000F111F03521E4FD801ED91FC918D2D19
:10381000099505C025703070232B09F033CFDF9157
:10382000CF911F910F91FF90EF90DF90BF90AF90DD
:103830000895EF92FF920F931F93CF93DF93C0E011
:10384000D0E006E110E093E0E92E84E1F82EC09F7D
:10385000F001C19FF00DD09FF00D1124EC5AF44FF0
:1038600083898823F9F480819181A281B3810097B3
:10387000A105B105E9F0E38A84898F5F848B8150CB
:10388000863060F0EA98F08A80E090E06C2F0E9429
:10389000E118EA9A8C2F0E94B7180AC08C2F0E9458
:1038A000831806C083898F3F19F083898150838BE9
:1038B0002196C530D10559F6DF91CF911F910F9117
:1038C000FF90EF9008958F929F92AF92BF92CF9208
:1038D000DF92EF92FF920F931F935C01F8E7CF2ED8
:1038E000F6E0DF2EECEEEE2EEFEFFE2EEC0CFD1CE4
:1038F000709378066093790650937A0640937B061E
:10390000089690937C0680937D06C5014C96F7013E
:103910009283838381E181874EED842E4FEF942E35
:103920008C0C9D1CC401B901A8010E94FB161092C9
:103930007F0610927E06F70172816381685F7F4F78
:10394000808190E08F709070880F991F880F991F69
:10395000681B790B675F7F4F9B0140E050E0695027
:103960007040C60108970E94B31690937E0680931C
:103970007F06C5018A96B4010E9472241F910F919F
:10398000FF90EF90DF90CF90BF90AF909F908F907F
:1039900008956F927F928F929F92AF92BF92CF9233
:1039A000DF92EF92FF920F931F933B014C0184E64D
:1039B000A82E86E0B82EB4E1CB2ED12CCA0CDB1C8D
:1039C00040937806F6012183F582E482178306830B
:1039D0001382128280E094E59093670680936606D6
:1039E00081E080936D0682EF9FEFA80EB91EC5019E
:1039F000B401A3010E94FB167091660660916706F0
:103A00008091640690E08F709070880F991F880FE6
:103A1000991F681B790BC60120E030E040E050E0C0
:103A20000E94B316F6019283838382E690E0B5018B
:103A30000E9472241F910F91FF90EF90DF90CF9022
:103A4000BF90AF909F908F907F906F9008950F934D
:103A50001F9380916406909165068050914009F013
:103A6000C1C08091660690916706089709F0BAC0B8
:103A700080916806863009F0B5C08091690684306F
:103A800009F0B0C020917C0630917D0640917E0601
:103A900050917F068091460B9091470BA091480B67
:103AA000B091490B281739074A075B0709F09AC0FC
:103AB00080916A0690916B06E1E080309E0709F0E4
:103AC0008CC00E945E1504E616E00E501040409136
:103AD0007206509173066091740670917506C80164
:103AE0000E94581688E096E0F801958784874091F7
:103AF000720650917306609174067091750620E00D
:103B000030E0F901EE0FFF1FE20FF31FEE0FFF1F72
:103B1000EE0FFF1FE95FF44F86819781A085B18585
:103B200084179507A607B70731F02F5F3F4F253061
:103B3000310539F725C0A4E6B6E040E050E0822F19
:103B400090E09C01220F331F280F391F220F331FD3
:103B5000220F331FF901E40FF51FE95FF44F808155
:103B600052968C935297FA01E458F34F808118963D
:103B70008C9318974F5F5F4F11964630510551F760
:103B800080E092E090936B0680936A0680917206C3
:103B900090917306A0917406B091750680937C068F
:103BA00090937D06A0937E06B0937F068091460B8E
:103BB0009091470BA091480BB091490B80937206EE
:103BC00090937306A0937406B09375068CE390E00F
:103BD00066E576E00E94722405C08050924011F4A0
:103BE0000E945E151F910F910895EF92FF920F931F
:103BF0001F93809162069091630626E088309207B9
:103C000019F40E94271D66C0089709F063C020912F
:103C10007406309175064091760650917706809132
:103C2000460B9091470BA091480BB091490B281778
:103C300039074A075B0709F042C00E945E15809170
:103C40006D068130B9F5809178068823C1F08830FF
:103C500009F040C060917006709171068091720603
:103C60009091730600917E0610917F06E0907C068D
:103C7000F0907D0640E020E00E94C91C2BC02091FE
:103C8000280C3091290C40912A0C50912B0C8091DA
:103C9000700690917106A0917206B0917306281774
:103CA00039074A075B07B1F480912D0C816080933E
:103CB0002D0C10C0863041F40E94251A05C02F5FDC
:103CC0003F4F4F4F5F4F31F480916D06813111F4BA
:103CD0000E9460181F910F91FF90EF9008958091BE
:103CE000450B81FF09C00E94191C0E949414809109
:103CF000450B8D7F8093450B8091450B80FD0FC058
:103D0000089580EB94E066E576E00E94EF24FC01E4
:103D1000009729F0EA5AF94F11820E94F51D1A9B6B
:103D2000F0CF8091450B8E7F8093450BEA9A0895E2
:103D30008F929F92AF92BF92CF92DF92EF92FF92BB
:103D40000F931F93DF93CF93CDB7DEB7AA970FB62C
:103D5000F894DEBF0FBECDBF4B015C018E01015F49
:103D60001F4F8091460B9091470BA091480BB0914B
:103D7000490B88259925AA25BB252091500B309108
:103D8000510B4091520B5091530B82239323A42348
:103D9000B5230097A105B10519F47501640108C0A8
:103DA000C0904C0BD0904D0BE0904E0BF0904F0B11
:103DB00088E096E09E878D87CE010196B701A60127
:103DC0000E9458168091460B9091470BA091480B8A
:103DD000B091490BF80186879787A08BB18BC08E75
:103DE000D18EE28EF38EACE7BCE08D918087128A93
:103DF00031962CE0A238B207C1F720E031E0F8019B
:103E00003183208388E090E09383828386E08483FB
:103E100084E08583378326838AE290E0BE016F5F6A
:103E20007F4F0E94722410E05AC0422FF901EE0F1A
:103E3000FF1FE20FF31FEE0FFF1FEE0FFF1FE95FE3
:103E4000F44F86819781A085B18588159905AA05CB
:103E5000BB0531F02F5F3F4F2530310531F745E08D
:103E600020E030E0F901EE0FFF1FE20FF31FEE0F2D
:103E7000FF1FEE0FFF1FE95FF44F86819781A0853A
:103E8000B1858C159D05AE05BF0531F02F5F3F4F05
:103E90002530310539F73AC0453021F5822F90E0C1
:103EA000FC01EE0FFF1FE80FF91FEE0FFF1FEE0FD3
:103EB000FF1FE95FF44F86829782A086B18612C009
:103EC00080E090E000000196F7E280319F07D1F793
:103ED0000E946F1E1F5F143111F480E004C020E0C7
:103EE00030E0A3CF81E0AA960FB6F894DEBF0FBEF4
:103EF000CDBFCF91DF911F910F91FF90EF90DF9099
:103F0000CF90BF90AF909F908F9008954530C1F2B1
:103F1000E9CF8F929F92AF92BF92CF92DF92EF92B2
:103F2000FF920F931F93DF93CF9300D000D0CDB7B4
:103F3000DEB77C01B42EA52E962E872E00E010E071
:103F40006E010894C11CD11CF999FECFC8018E0DD9
:103F50009F1D0E943971F601E00FF11F80830F5FF2
:103F60001F4F0430110581F729813A814B815C8113
:103F70002F3F8FEF38078FEF48078FEF580741F437
:103F80002B2D3A2D492D582DC901DA019C01AD0187
:103F9000B901CA010F900F900F900F90CF91DF9150
:103FA0001F910F91FF90EF90DF90CF90BF90AF9057
:103FB0009F908F9008958EE190E040EC58EA61E088
:103FC00073E60E94891F6093460B7093470B8093A2
:103FD000480B9093490B82E290E04FEF5FEF6FEF59
:103FE00070E00E94891F6093500B7093510B809377
:103FF000520B9093530B86E290E040EC58EA60E05D
:1040000071E00E94891F60934C0B70934D0B80935D
:104010004E0B90934F0B8AE290E040EC58EA60E040
:1040200071E00E94891F60936A0D70936B0D8093FD
:104030006C0D90936D0D10927C0C80E280937D0C42
:1040400088E180937E0C81EB80937F0C85E18093E7
:10405000800C8FE38093810C0E9477250895823035
:1040600031F0E82FF0E0E450FF4F84910895862F5F
:1040700090E083709070892B11F48DE108958CE1AC
:1040800008952091310C30E02053384FC901089534
:10409000EF92FF920F931F93FC01DB01B801809117
:1040A000310C90E08053984F918380838091320C43
:1040B0008C9380917B0CFA0180838091750CF901BF
:1040C00080838091740CFB0180838091730CF701D5
:1040D00080831F910F91FF90EF900895CF93DF930E
:1040E0008091320C20917B0C90E00197EC0135E03F
:1040F000CC0FDD1F3A95E1F7C81BD90BC20FD11DBC
:104100008091320C833050F08091310C90E08370BC
:104110009070892B11F0239701C022978091320C67
:10412000853008F021978091320C873008F0219774
:104130008091320C8A3008F021978091320C8C30BB
:1041400008F021974091310C8091310C2091310C75
:1041500090E0019764E070E00E94496BFB0130E061
:10416000C90101976CE97FEF0E94496BE60FF71FC9
:10417000E40FF11DEC0FFD1F8091310C8111319680
:10418000CF01059667E070E00E94356B8093300C9C
:10419000DF91CF910895CF93DF93EC0181E080937D
:1041A000320C8091320C6091310C0E942F200DC096
:1041B000C81BD90B8091320C8F5F8093320C809199
:1041C000320C6091310C0E942F2090E08C179D07DB
:1041D00078F3C0937B0C0E946E20DF91CF910895FD
:1041E000809181008D6080938100109285001092F3
:1041F00084008DE591E09093890080938800809100
:104200006F00826080936F0010924B0610924A06F6
:1042100010924F0610924E0680E090E02FEFFC01C6
:10422000EE0FFF1FEE0FFF1FED5CF34F2083019693
:1042300080319105A1F71092330C1092340C8091CB
:10424000350C8E7F8093350C8091350C8D7F80935B
:10425000350C8091350C84608093350C1092360CAF
:104260001092750C1092740C1092730C81E0809374
:104270007B0C8093320C88E08093310C0E946E207E
:104280001092760C8CE390E090932F0C80932E0C80
:1042900008958091320C6091310C0E942F209091F2
:1042A0007B0C9F5F90937B0C20917B0C30E090E027
:1042B00001962817390799F491E090937B0C80912F
:1042C000320C8F5F8093320C8091320C8D3039F438
:1042D0009093320C8091310C8F5F8093310C8091E0
:1042E000300C8F5F8093300C8091300C67E00E941F
:1042F000296B9093300C81E08093400608950F93D2
:104300001F93CF93DF93D901E82FF0E023E33CE044
:10431000EE0FFF1FEE0FFF1F89010E0F1F1FE80199
:10432000688349839C9191703296E20FF31F8081DC
:104330008E7F892B80839C91927080818D7F892BC9
:1043400080839C91947080818B7F892B80831196D0
:104350008C918B83DF91CF911F910F910895CF9214
:10436000DF92EF92FF920F931F93CF93DF93EA01B7
:10437000362F20E07901E80EF11CDD2400E010E08A
:1043800060E070E0C62EDB01AA0FBB1FAA0FBB1FA7
:10439000AD5CB34F8C918F3F01F140E050E0FD01E7
:1043A0003196808190E0042E02C0959587950A94FD
:1043B000E2F780FF0DC08C91342F2227280F311D8A
:1043C000E216F30628F00217130710F4DC2C89011B
:1043D0004F5F5F4F4730510521F76F5F7F4F60316F
:1043E000710581F6ED2DF0E0EE0FFF1FEE0FFF1FC0
:1043F000DF01AB5CB34F9C91917088818E7F892BDC
:1044000088839C91927088818D7F892B88839C9171
:10441000947088818B7F892B8883ED5CF34F838137
:10442000898381E0DF91CF911F910F91FF90EF90F1
:10443000DF90CF900895AC012091750C8091740CA1
:10444000E091300C9AE0299F900111246AE00E94CB
:10445000296B820F6E2F0E94AF2108951F920F9239
:104460000FB60F9211248F939F93AF93BF938091B8
:1044700026019091270101979093270180932601AF
:104480000196F1F488E290E0909327018093260151
:104490008091770C9091780CA091790CB0917A0C66
:1044A0000196A11DB11D8093770C9093780CA09379
:1044B000790CB0937A0C80913C068F5F80933C0618
:1044C00080914C06882361F080914C068150809346
:1044D0004C0680914C06882319F481E080934D06A8
:1044E000BF91AF919F918F910F900FBE0F901F9032
:1044F00018958091730C8F5F8093730C8091730C6F
:104500008C3309F056C01092730C8091740C8F5F3D
:104510008093740C8091740C8C3309F040C010921D
:10452000740C8091750C8F5F8093750C8091750C65
:10453000883121F41092750C0E9449218091320C2F
:10454000833089F48091300C882369F48091750C54
:10455000823049F480917B0C893128F08091750C70
:104560008F5F8093750C8091320C8A30C1F48091FA
:10457000300C8823A1F48091750C833081F48091F4
:10458000760C882361F480917B0C893140F0809116
:10459000750C81508093750C81E08093760C80912E
:1045A000740C6AE00E94296B992319F481E08093CE
:1045B0003F0680912E0C90912F0C019790932F0C19
:1045C00080932E0C80912E0C90912F0C892B49F406
:1045D00081E080933E068CE390E090932F0C8093D3
:1045E0002E0C80910D0290910E02A0910F02B091BD
:1045F00010020196A11DB11D80930D0290930E0231
:10460000A0930F02B09310020197A109B109815B39
:104610009440A040B04050F010920D0210920E0253
:1046200010920F02109210020E94DB1F80914A0B21
:1046300090914B0B019790934B0B80934A0B0895ED
:10464000EF92FF920F931F93DF93CF9300D000D090
:10465000CDB7DEB7F82EE92E8091320C90E00197AD
:10466000BC01660F771F680F791F675F7E4F8E0151
:104670000F5F1F4FC80143E050E00E940F6E1C8285
:1046800040917B0C2091310C8DB79EB70A970FB6E5
:10469000F8949EBF0FBE8DBFEDB7FEB73196ADB794
:1046A000BEB71196FC92E1828EE291E09383828301
:1046B000448315821783068330E02053384F3187B7
:1046C00020870E941C6F8DB79EB70A960FB6F8948C
:1046D0009EBF0FBE8DBF8F2D9E2D0F900F900F9000
:1046E0000F90CF91DF911F910F91FF90EF90089560
:1046F000CF93DF93EC01DB0134C086958695FD01F5
:104700008193888183708295807F11968C93119715
:104710009981992321F4DF01119642E026C09295F8
:104720009F70890F11968C93119789818F70880FD4
:10473000880F12968C9312979A81992319F41396E5
:1047400041E013C09295969596959370890F1296B5
:104750008C9312978A818F7313968C931397149668
:1047600023968881882349F640E01C92EB0108C01B
:10477000E881F0E0EF73F070E75CFE4FE491E993BD
:10478000CA17DB07A9F7FD01842F9DE302C09193AF
:1047900081508823E1F7A40FB11D1C92DF91CF91C6
:1047A00008952B988F71806A8EBD0DB407FEFDCFE2
:1047B0006EBD0DB407FEFDCF2B9A08952B988F7117
:1047C00080688EBD0DB407FEFDCF6EBD0DB407FE33
:1047D000FDCF2B9A0895FF920F931F93CF93DF93F2
:1047E000182F9FE1F92EF82289E18F15D0F0C12F03
:1047F000D0E0C076D07085E0D595C7958A95E1F771
:104800000C2F80911402C81761F08FE163E00E94C1
:10481000D123CC2321F08FE16C2F0E94DE23009363
:1048200014022B98FEBC0DB407FEFDCF1EBC0DB4C8
:1048300007FEFDCF17FF04C01EBC0DB407FEFDCF61
:104840008EB52B9ADF91CF911F910F91FF90089514
:10485000FF920F931F93CF93DF93F62E182F1F71A4
:104860001A31D0F4C82FD0E0C076D07025E0D595AD
:10487000C7952A95E1F70C2F80911402C81761F0B3
:104880008FE163E00E94D123CC2321F08FE16C2FD4
:104890000E94DE23009314022B9810641EBD0DB4F9
:1048A00007FEFDCFFEBC0DB407FEFDCF2B9ADF91B6
:1048B000CF911F910F91FF900895FC012B988AE3EF
:1048C0008EBD0DB407FEFDCF08C01EBC0DB407FEA3
:1048D000FDCF8EB581936150704061157105A9F7C8
:1048E0002B9A0895CF92DF92EF92FF920F931F932E
:1048F000DF93CF930F92CDB7DEB77C016B011982A6
:1049000004E610E011C08FE10E94EB2383FF12C088
:1049100088EE93E001972FEF8F3F920729F0000078
:10492000000000000000F6CF015010408FEF0F3F55
:10493000180749F78FE10E94EB2383FF08C08FE13E
:1049400060E80E94DE238FE160E80E94D12382E0CC
:1049500060E00E94282483E06AE10E94282486E027
:104960006E2D0E94282497012050364E87E0632F39
:104970000E9428242B988AE78EBD0DB407FEFDCF38
:1049800089818EBD0DB407FEFDCF2B9A2B988AE747
:104990008EBD0DB407FEFDCF0CC0F60180818EBD2B
:1049A0000DB407FEFDCF0894E108F1080894C11C7E
:1049B000D11CE114F10489F72B9A8CE168E00E9484
:1049C000D1238FE168E00E94DE230F90CF91DF9129
:1049D0001F910F91FF90EF90DF90CF900895CF92AD
:1049E000DF92EF92FF920F931F93DF93CF9300D04C
:1049F00000D000D0CDB7DEB77C016B0189E30E9407
:104A0000EB23882319F400E010E061C060911202EA
:104A10007091130280E00E942824209112023091AC
:104A2000130281E0632F0E942824CE01019666E0E4
:104A300070E00E945D24898190E09093130280933E
:104A4000120220911202309113029A8180E0822B8F
:104A5000932B90931302809312028B81082F10E006
:104A60009C8180E0082B192B04501040E016F106C1
:104A700008F48701C601B8010E945D2480911202EA
:104A800090911302019780509A41A8F480911202EC
:104A900090911302609112027091130261508CE0A8
:104AA0000E9428242091120230911302215030409C
:104AB0008DE0632F06C08CE06FEF0E9428248DE00C
:104AC00069E10E9428248EE160E40E94DE23C8018F
:104AD00026960FB6F894DEBF0FBECDBFCF91DF9103
:104AE0001F910F91FF90EF90DF90CF900895EF927C
:104AF000FF920F931F93CF93DF93239A2B9A84B146
:104B0000806A84B92F9A2698249A80E58CBD81E02A
:104B10008DBD80E197E201972FEF8F3F920729F03B
:104B20000000000000000000F6CF2B988FEF8EBD34
:104B30000DB407FEFDCF2B9A88EE93E00197EFEFBF
:104B40008F3F9E0729F00000000000000000F6CF14
:104B50008DE10E94EB2380FFFBCF82E70E94EB23D5
:104B60008093110210927C0C80E280937D0C88E18E
:104B700080937E0C81EB80937F0C85E18093800C89
:104B80008FE38093810CC0E0D0E0CE01FE01E558B8
:104B9000FE4F2491229684589E4FFC0164912F3F32
:104BA00011F46F3F21F0822F0E942824EECFC558C8
:104BB000DE4FFE0164912196FE01849121976F3FA3
:104BC00011F48F3F39F1F82EEE242296FE01049164
:104BD000229710E00E291F2984ED0E94282486EDDB
:104BE000602F0E94282487ED612F0E9428248AE0EC
:104BF00090E00197FFEF8F3F9F0729F00000000032
:104C000000000000F6CF8AEE0E94EB2380FDFBCF70
:104C10002396CFCF10921302109212028BE160EC18
:104C20000E9428248FE164E00E94DE23DF91CF916F
:104C30001F910F91FF90EF900895CF93DF9390E035
:104C400027E230E0829FA001839F500D929F500D7C
:104C50001124AEE9BCE09D01240F351FE9018881D4
:104C6000817F816088831897FD01E40FF51F13820F
:104C700012821182108288818F7E888382E89CE074
:104C80009583848389E391E0928781878EE391E025
:104C90009487838783E491E0978386831D96A40F8E
:104CA000B51F8C918E7F8C93178E10A211A212A229
:104CB00013A214A215A216A2DF91CF9108952F92EC
:104CC0003F924F925F926F927F928F929F92AF929C
:104CD000BF92CF92DF92EF92FF920F931F93DF93D9
:104CE000CF93CDB7DEB7C655D0400FB6F894DEBF30
:104CF0000FBECDBF67968FAF6797882E992487E246
:104D000090E0889E9001899E300D989E300D112470
:104D1000F901E256F34F808180FD07C0F901EA56A0
:104D2000F34F83ED95E19383828386E190E0889E43
:104D3000F001899EF00D989EF00D1124EC5AF44F6D
:104D40008089882321F587E290E0889EF001899E82
:104D5000F00D989EF00D11249F012A56334FD90172
:104D60008D919C91119713969C938E931297ED556C
:104D7000F34F808180FF0BC093968D919D910D9094
:104D8000BC91A02DF901878F90A3A1A3B2A380911C
:104D9000840690E0807F907095958795959587958E
:104DA0008858994F9A8389831C821B8287E290E0FE
:104DB000889E8001899E100D989E100D112463EA33
:104DC000E62E6CE0F62EE00EF11ED7018C9180FFEE
:104DD0009AC056E9C52E5CE0D52EC00ED11E4FE11B
:104DE000642E712C6C0C7D1CF601878D90A1A1A105
:104DF000B2A183A394A3A5A3B6A3C8018C55934FD6
:104E000068E271E00E94E94C5C01009709F477C008
:104E1000D60193964D915D916D917C91969720E08E
:104E20000E948F4CF801E256F34F80818695837083
:104E3000B9F5EE24FF2435E0C32ED12CCC0EDD1EB7
:104E400023E0222E312C2C0E3D1E2E010894411CF5
:104E5000511C8301C60161E570E0A5010E94464C2A
:104E6000892BD1F1C601B201A1010E94FA36E80EE8
:104E7000F91E8B819C81A0E0B0E0F8012081318196
:104E800042815381820F931FA41FB51F808391839A
:104E9000A283B383F6E1EF16F4E0FF06D8F22BC04D
:104EA00069817A81C5014AE754E00E94A04F7C01E4
:104EB000A0E0B0E0F601278D30A141A152A1820F00
:104EC000931FA41FB51F878F90A3A1A3B2A3FAE7D6
:104ED000EF16F4E0FF0678F486E190E0889EF0019A
:104EE000899EF00D989EF00D1124EC5AF44F8DEF31
:104EF0009FEF928B818BC5010E94DE4C06C0D701CB
:104F00008C918E7F8C93EE24FF2487E290E0889E24
:104F10009001899E300D989E300D1124F901ED55B8
:104F2000F34F808180FDBAC0F901EA56F34FBF010B
:104F30006E5F7F4F4281538140835183F901E25676
:104F4000F34F80818695837009F442C064C0F601F6
:104F500060817181C30140E550E00E94B26DC301E0
:104F60006DEE75E10E941E6EFC01009769F01282E1
:104F7000E619F7093296D6018D919C9111978E0F03
:104F80009F1F8D939C930AC066961FAE6697F6018D
:104F900080819181805B9F4F91838083C30168EE04
:104FA00075E10E941E6E8C01009741F0EDEFFFEF5E
:104FB000D5011196FC93EE93DC011C92C301B20162
:104FC000A1010E94FA36E80EF91E012BE9F066C035
:104FD00095E0692E712C6C0E7D1E6B0186E190E0D0
:104FE000889E5001899EB00C989EB00C1124E5E675
:104FF000FBE0AE0EBF1E83E0282E312C2C0E3D1E92
:105000002E010894411C511CF6E1EF16F4E0FF0656
:1050100008F49DCF43C0CA016C012EC0F60108946C
:10502000C11CD11CE491A981BA81EC9309811A8138
:10503000D8018C918532C9F48AE291E0B60143E04F
:1050400050E00E94E96D892B81F486E190E0889E12
:10505000F001899EF00D989EF00D1124EC5AF44F4A
:105060008DEF9FEF928B818B0CC00894E11CF11C9B
:105070000F5F1F4F1A830983BAE7EB16B4E0FB06F4
:1050800068F287E290E0889EF001899EF00D989E7C
:10509000F00D1124EA56F34FD382C28286E190E0EC
:1050A000889EF001899EF00D989EF00D1124EC5A17
:1050B000F44F88E1808BC70167966FAD67970E94B8
:1050C000E118CA5ADF4F0FB6F894DEBF0FBECDBF4E
:1050D000CF91DF911F910F91FF90EF90DF90CF90D4
:1050E000BF90AF909F908F907F906F905F904F9008
:1050F0003F902F9008952F923F924F925F926F9220
:105100007F928F929F92AF92BF92CF92DF92EF9257
:10511000FF920F931F93DF93CF93CDB7DEB72E97F8
:105120000FB6F894DEBF0FBECDBF582E8091840617
:10513000E82EFF2480EFE822FF24F594E794F5940D
:10514000E794C7018858994F61E176E10E945B6E50
:10515000892B81F0252D30E087E290E0289FF00137
:10516000299FF00D389FF00D1124E256F34F8081F6
:1051700080618083852C992487E290E0889EA0013D
:10518000899E500D989E500D1124DA01AA56B34FF6
:10519000BD016A5F7F4F1696ED91FC911797808154
:1051A000882319F4AA24BB245BC012E2A12EB12CDF
:1051B000AE0CBF1C80916706282F30E02E5D3F4F5C
:1051C0009091660680E0280F391F2E193F0985014E
:1051D0000A5A194F4256534F1496F2E86F2EFCE0CC
:1051E0007F2EE3E4CE2EE1E0DE2E37C0FA0180818F
:1051F00080FD18C0F8018081ED91FC91119791918B
:105200001196FC93EE93891719F011967C926E9289
:10521000ED91FC9111978081882321F4FA0180811E
:1052200081608083F8018081FB0120803180F10161
:1052300091911F01FB0131822082891711F0D182E7
:10524000C0820F5F1F4FFB0180819181FC01808133
:10525000882331F00894A11CB11CA216B30630F2C9
:1052600087E290E0889EA001899E500D989E500D87
:105270001124FA01E256F34FE081E0FF87C0E4FF1A
:1052800085C082B18093150262E2A62EB12CAE0CCD
:10529000BF1C80916706282F30E02E5D3F4F909114
:1052A000660680E0280F391F2E193F09B5016A5A9A
:1052B000794F8A01CA018A56934FDC01199659E346
:1052C000C52E51E0D52E44E1342E44244394AC0144
:1052D000455F5F4F57C0FB019081ED91FC911197A5
:1052E00081911196FC93EE93981719F01196DC9228
:1052F000CE92ED91FC91119780818823E1F4FB011E
:105300008181823441F0833461F0813489F4809169
:105310001502842503C080911502826080931502D6
:1053200007C0809115028460809315023092480670
:105330001196DC92CE92FA010190F081E02D8191DC
:105340003F01FA0171826082981721F08EE391E0AB
:10535000918380836F5F7F4FFA0180819181FC018F
:105360008081882361F4F801E256F34F80818F7EBB
:1053700080838091150282B91092150207C00894AB
:10538000A11CB11CA216B30608F4A5CF87E290E0D9
:10539000889E9001899E300D989E300D1124F90150
:1053A000EA56F34F82819381892B09F064C1F90198
:1053B000ED55F34F808180FD5EC1B7E2AB2EB12C7D
:1053C000AE0CBF1C80916706282F30E02E5D3F4F4A
:1053D0009091660680E0280F391F2E193F09F501CC
:1053E000EA5AF94F0BC081918D3029F4F501EA5A40
:1053F000F94F108206C00894A11CB11CA216B30676
:1054000090F387E290E0889E9001899E300D989EEF
:10541000300D1124F901E256F34F9081929591706D
:1054200080918406E82FF0E0E07FF070F595E79535
:10543000F595E795E90FF11DE358F94F74EAC72E8A
:105440007CE0D72EC20ED31ED60120E030E08CE0E7
:1054500006C04E3209F49D0181504D933196408132
:10546000442321F0403211F0882399F71C92211532
:10547000310511F47D0104C079010894E11CF11C8F
:1054800087E290E0889E8001899E100D989E100D05
:105490001124F801EA56F34F86858823A9F4C60142
:1054A00067E076E10E94D96D78016AEA662E6CE0C9
:1054B000762EE60CF71C8091120190911301019653
:1054C0009093130180931201C60168E271E00E947B
:1054D000E94C6C01009771F480918406082F10E06C
:1054E000007F107015950795159507950858194F69
:1054F000DD24B2C087E290E0889E8001899E100D75
:10550000989E100D1124F801ED55F34F80818160B4
:105510008083C70163E076E143E050E00E94E96DDB
:10552000892B31F4F801E256F34F8081897F16C050
:10553000C7016FEF75E143E050E00E94E96D892BF0
:1055400039F4F801E256F34F8081897F846006C008
:10555000F801E256F34F8081897F8260808387E281
:1055600090E0889EF001899EF00D989EF00D112428
:10557000EA56F34FD60199962D913D914D915C914C
:105580009C97238F348F458F568F178E10A211A2B0
:1055900012A213A214A215A216A2C6010E94DE4CEA
:1055A0006AC0C801B7010E945B6E892B09F453C021
:1055B0006E010894C11CD11CC601B7014CE050E03B
:1055C0000E940F6E87E290E0889E7001899EF00C29
:1055D000989EF00C1124EEE9FCE0EE0EFF1ED701C0
:1055E0000C91097F02600C93C6016AEF75E10E947D
:1055F0005B6E892B11F0097F15C0C60165EF75E15F
:105600000E945B6E892B29F0097F0260D7010C9301
:105610000BC0C60160EF75E10E945B6E892B21F023
:10562000097F0260F7010083F301EE0FFF1FEE0F09
:10563000FF1FE750FC4E2591349187E290E0889E51
:10564000F001899EF00D989EF00D1124EA56F34F5B
:105650003383228310C0D3946D2C7724F301EE0F93
:10566000FF1FEE0FFF1FE950FC4EE590F490E11490
:10567000F10409F096CF87E290E0889E9001899E20
:10568000300D989E300D1124D901AA56B34F1696AD
:10569000ED91FC9117978081882331F4F901E2564E
:1056A000F34FE081E4FF17C086E190E0889E80011F
:1056B000899E100D989E100D11240C5A144F80E1F4
:1056C000D80150968C9380E090E0652D0E94E118FF
:1056D00081E090E033C0E0FD35C086E190E0889E37
:1056E0008001899E100D989E100D11240C5A144FA4
:1056F000F801808983FF26C083ED95E113969C9382
:105700008E9312978091840690E0807F907095959B
:105710008795959587958858994F63EC74E141E892
:1057200050E00E94B26D88E1D80150968C9381E8D8
:1057300090E0652D0E94E11882E090E0F801928BE4
:10574000818B9BC087E290E0889E9001899E300DFE
:10575000989E300D1124D901AA56B34F12968D91FF
:105760009C911397892BD9F4F901ED55F34F808162
:1057700080FD15C08BEB91E013969C938E9312974E
:10578000F901E256F34F8081897F80838091120175
:10579000909113010196909313018093120186E179
:1057A00090E0889EF001899EF00D989EF00D1124E6
:1057B000EC5AF44F82E090E0928B818B87E290E08C
:1057C000889EF001899EF00D989EF00D1124E256FE
:1057D000F34F80818695837090E08130910599F038
:1057E0008230910529F1892BB9F58091840690E0EA
:1057F000807F907095958795959587958858994F56
:1058000063E174E10DC08091840690E0807F907028
:1058100095958795959587958858994F6BE674E18E
:1058200047E550E00E94B26DA7E5AA2EB12C14C046
:105830008091840690E0807F9070959587959595EE
:1058400087958858994F65E475E14DE850E00E94CE
:10585000B26DEDE8AE2EB12C86E190E0889EF001AD
:10586000899EF00D989EF00D1124EC5AF44F88E1BA
:10587000808BC501652D0E94E1182E960FB6F89415
:10588000DEBF0FBECDBFCF91DF911F910F91FF9073
:10589000EF90DF90CF90BF90AF909F908F907F90D0
:1058A0006F905F904F903F902F9008951F93CF93EC
:1058B000DF93182FC82FD0E086E190E0C89FF00159
:1058C000C99FF00DD89FF00D1124EC5AF44F808938
:1058D00080FD3EC081899289019719F4812F0E9431
:1058E0001D2686E190E0C89FF001C99FF00DD89F6A
:1058F000F00D1124EC5AF44F81899289039720F41A
:10590000812F0E947B2824C081899289039748F0C7
:10591000818992898E5F9F4F20F4812F0E945F269C
:1059200017C086E190E0C89FF001C99FF00DD89F95
:10593000F00D1124EC5AF44F818992898E5F9F4FAC
:1059400038F08EEF9FEF928B818B812F0E940C1A83
:10595000DF91CF911F9108958EE291E062E87CE0A3
:105960000E94782380E590E066E57CE20E94D914ED
:105970000895FF920F931F93CF93DF93C09122015D
:10598000D09123018091430B9091440BC817D90704
:1059900009F469C060E070E026E130E0F62E629F15
:1059A000F001639FF00D729FF00D1124EC5AF44F3B
:1059B000868197818050974109F046C08091D80B2D
:1059C00080FD51C08091D80B81608093D80B80916D
:1059D0002401909125019093440B8093430B40E068
:1059E00050E015C0FA01EA5AF94FD9018D9186AB02
:1059F000B093440BA093430BA752BC4031F4205307
:105A000030403093440B2093430B4F5F5F4F209106
:105A1000430B3091440BC217D30721F786E190E086
:105A2000689F8001699F100D789F100D11240C5AFA
:105A3000144F88E1F801808BCA016F2D0E94E11894
:105A400083E0F801838B0FC06F5F7F4F6530710576
:105A500009F0A4CF8091F50B82FF05C08091F50B72
:105A60008B7F8093F50BDF91CF911F910F91FF906A
:105A70000895FF920F931F93F82EA82FB0E086E1B0
:105A800090E0A89FF001A99FF00DB89FF00D1124A0
:105A9000EC5AF44F808980FF06C08091F50B8B7F14
:105AA0008093F50BB6C081899289892B21F0818979
:105AB0009289019759F586E190E0A89F8001A99FFE
:105AC000100DB89F100D11240C5A144F81E090E076
:105AD000F801928B818B8CE896E066E176E146E1F5
